{
	"contracts/4_ToDoList.sol": {
		"ToDoList": {
			"abi": [
				{
					"anonymous": false,
					"inputs": [
						{
							"indexed": true,
							"internalType": "address",
							"name": "user",
							"type": "address"
						},
						{
							"indexed": false,
							"internalType": "uint256",
							"name": "taskId",
							"type": "uint256"
						},
						{
							"indexed": false,
							"internalType": "string",
							"name": "content",
							"type": "string"
						}
					],
					"name": "TaskAdded",
					"type": "event"
				},
				{
					"anonymous": false,
					"inputs": [
						{
							"indexed": true,
							"internalType": "address",
							"name": "user",
							"type": "address"
						},
						{
							"indexed": false,
							"internalType": "uint256",
							"name": "taskId",
							"type": "uint256"
						}
					],
					"name": "TaskCompleted",
					"type": "event"
				},
				{
					"inputs": [
						{
							"internalType": "string",
							"name": "_content",
							"type": "string"
						}
					],
					"name": "addTask",
					"outputs": [
						{
							"internalType": "uint256",
							"name": "",
							"type": "uint256"
						}
					],
					"stateMutability": "nonpayable",
					"type": "function"
				},
				{
					"inputs": [],
					"name": "getAllTasks",
					"outputs": [
						{
							"internalType": "uint256[]",
							"name": "",
							"type": "uint256[]"
						},
						{
							"internalType": "string[]",
							"name": "",
							"type": "string[]"
						},
						{
							"internalType": "bool[]",
							"name": "",
							"type": "bool[]"
						}
					],
					"stateMutability": "view",
					"type": "function"
				},
				{
					"inputs": [
						{
							"internalType": "uint256",
							"name": "_taskId",
							"type": "uint256"
						}
					],
					"name": "getTask",
					"outputs": [
						{
							"internalType": "string",
							"name": "content",
							"type": "string"
						},
						{
							"internalType": "bool",
							"name": "completed",
							"type": "bool"
						}
					],
					"stateMutability": "view",
					"type": "function"
				},
				{
					"inputs": [],
					"name": "getTaskCount",
					"outputs": [
						{
							"internalType": "uint256",
							"name": "",
							"type": "uint256"
						}
					],
					"stateMutability": "view",
					"type": "function"
				},
				{
					"inputs": [
						{
							"internalType": "uint256",
							"name": "_taskId",
							"type": "uint256"
						}
					],
					"name": "markTaskCompleted",
					"outputs": [],
					"stateMutability": "nonpayable",
					"type": "function"
				},
				{
					"inputs": [
						{
							"internalType": "address",
							"name": "",
							"type": "address"
						},
						{
							"internalType": "uint256",
							"name": "",
							"type": "uint256"
						}
					],
					"name": "tasks",
					"outputs": [
						{
							"internalType": "string",
							"name": "content",
							"type": "string"
						},
						{
							"internalType": "bool",
							"name": "completed",
							"type": "bool"
						}
					],
					"stateMutability": "view",
					"type": "function"
				}
			],
			"devdoc": {
				"kind": "dev",
				"methods": {},
				"version": 1
			},
			"evm": {
				"assembly": "    /* \"contracts/4_ToDoList.sol\":57:2316  contract ToDoList {... */\n  mstore(0x40, 0x80)\n  callvalue\n  dup1\n  iszero\n  tag_1\n  jumpi\n  0x00\n  dup1\n  revert\ntag_1:\n  pop\n  dataSize(sub_0)\n  dup1\n  dataOffset(sub_0)\n  0x00\n  codecopy\n  0x00\n  return\nstop\n\nsub_0: assembly {\n        /* \"contracts/4_ToDoList.sol\":57:2316  contract ToDoList {... */\n      mstore(0x40, 0x80)\n      callvalue\n      dup1\n      iszero\n      tag_1\n      jumpi\n      0x00\n      dup1\n      revert\n    tag_1:\n      pop\n      jumpi(tag_2, lt(calldatasize, 0x04))\n      shr(0xe0, calldataload(0x00))\n      dup1\n      0x0b2bda\n      eq\n      tag_3\n      jumpi\n      dup1\n      0x1d65e77e\n      eq\n      tag_4\n      jumpi\n      dup1\n      0x67238562\n      eq\n      tag_5\n      jumpi\n      dup1\n      0x7149d2e4\n      eq\n      tag_6\n      jumpi\n      dup1\n      0x779900b4\n      eq\n      tag_7\n      jumpi\n      dup1\n      0xc17a340e\n      eq\n      tag_8\n      jumpi\n    tag_2:\n      0x00\n      dup1\n      revert\n        /* \"contracts/4_ToDoList.sol\":887:1123  function markTaskCompleted(uint256 _taskId) public {... */\n    tag_3:\n      tag_9\n      0x04\n      dup1\n      calldatasize\n      sub\n      dup2\n      add\n      swap1\n      tag_10\n      swap2\n      swap1\n      tag_11\n      jump\t// in\n    tag_10:\n      tag_12\n      jump\t// in\n    tag_9:\n      stop\n        /* \"contracts/4_ToDoList.sol\":1334:1613  function getTask(uint256 _taskId) public view returns (string memory content, bool completed) {... */\n    tag_4:\n      tag_13\n      0x04\n      dup1\n      calldatasize\n      sub\n      dup2\n      add\n      swap1\n      tag_14\n      swap2\n      swap1\n      tag_11\n      jump\t// in\n    tag_14:\n      tag_15\n      jump\t// in\n    tag_13:\n      mload(0x40)\n      tag_16\n      swap3\n      swap2\n      swap1\n      tag_17\n      jump\t// in\n    tag_16:\n      mload(0x40)\n      dup1\n      swap2\n      sub\n      swap1\n      return\n        /* \"contracts/4_ToDoList.sol\":499:837  function addTask(string memory _content) public returns (uint256) {... */\n    tag_5:\n      tag_18\n      0x04\n      dup1\n      calldatasize\n      sub\n      dup2\n      add\n      swap1\n      tag_19\n      swap2\n      swap1\n      tag_20\n      jump\t// in\n    tag_19:\n      tag_21\n      jump\t// in\n    tag_18:\n      mload(0x40)\n      tag_22\n      swap2\n      swap1\n      tag_23\n      jump\t// in\n    tag_22:\n      mload(0x40)\n      dup1\n      swap2\n      sub\n      swap1\n      return\n        /* \"contracts/4_ToDoList.sol\":154:193  mapping(address => Task[]) public tasks */\n    tag_6:\n      tag_24\n      0x04\n      dup1\n      calldatasize\n      sub\n      dup2\n      add\n      swap1\n      tag_25\n      swap2\n      swap1\n      tag_26\n      jump\t// in\n    tag_25:\n      tag_27\n      jump\t// in\n    tag_24:\n      mload(0x40)\n      tag_28\n      swap3\n      swap2\n      swap1\n      tag_17\n      jump\t// in\n    tag_28:\n      mload(0x40)\n      dup1\n      swap2\n      sub\n      swap1\n      return\n        /* \"contracts/4_ToDoList.sol\":1681:2314  function getAllTasks() public view returns (uint256[] memory, string[] memory, bool[] memory) {... */\n    tag_7:\n      tag_29\n      tag_30\n      jump\t// in\n    tag_29:\n      mload(0x40)\n      tag_31\n      swap4\n      swap3\n      swap2\n      swap1\n      tag_32\n      jump\t// in\n    tag_31:\n      mload(0x40)\n      dup1\n      swap2\n      sub\n      swap1\n      return\n        /* \"contracts/4_ToDoList.sol\":1187:1289  function getTaskCount() public view returns (uint256) {... */\n    tag_8:\n      tag_33\n      tag_34\n      jump\t// in\n    tag_33:\n      mload(0x40)\n      tag_35\n      swap2\n      swap1\n      tag_23\n      jump\t// in\n    tag_35:\n      mload(0x40)\n      dup1\n      swap2\n      sub\n      swap1\n      return\n        /* \"contracts/4_ToDoList.sol\":887:1123  function markTaskCompleted(uint256 _taskId) public {... */\n    tag_12:\n        /* \"contracts/4_ToDoList.sol\":966:971  tasks */\n      0x00\n        /* \"contracts/4_ToDoList.sol\":966:983  tasks[msg.sender] */\n      dup1\n        /* \"contracts/4_ToDoList.sol\":972:982  msg.sender */\n      caller\n        /* \"contracts/4_ToDoList.sol\":966:983  tasks[msg.sender] */\n      0xffffffffffffffffffffffffffffffffffffffff\n      and\n      0xffffffffffffffffffffffffffffffffffffffff\n      and\n      dup2\n      mstore\n      0x20\n      add\n      swap1\n      dup2\n      mstore\n      0x20\n      add\n      0x00\n      keccak256\n        /* \"contracts/4_ToDoList.sol\":966:990  tasks[msg.sender].length */\n      dup1\n      sload\n      swap1\n      pop\n        /* \"contracts/4_ToDoList.sol\":956:963  _taskId */\n      dup2\n        /* \"contracts/4_ToDoList.sol\":956:990  _taskId < tasks[msg.sender].length */\n      lt\n        /* \"contracts/4_ToDoList.sol\":948:1014  require(_taskId < tasks[msg.sender].length, \"Task does not exist\") */\n      tag_37\n      jumpi\n      mload(0x40)\n      0x08c379a000000000000000000000000000000000000000000000000000000000\n      dup2\n      mstore\n      0x04\n      add\n      tag_38\n      swap1\n      tag_39\n      jump\t// in\n    tag_38:\n      mload(0x40)\n      dup1\n      swap2\n      sub\n      swap1\n      revert\n    tag_37:\n        /* \"contracts/4_ToDoList.sol\":1063:1067  true */\n      0x01\n        /* \"contracts/4_ToDoList.sol\":1024:1029  tasks */\n      0x00\n        /* \"contracts/4_ToDoList.sol\":1024:1041  tasks[msg.sender] */\n      dup1\n        /* \"contracts/4_ToDoList.sol\":1030:1040  msg.sender */\n      caller\n        /* \"contracts/4_ToDoList.sol\":1024:1041  tasks[msg.sender] */\n      0xffffffffffffffffffffffffffffffffffffffff\n      and\n      0xffffffffffffffffffffffffffffffffffffffff\n      and\n      dup2\n      mstore\n      0x20\n      add\n      swap1\n      dup2\n      mstore\n      0x20\n      add\n      0x00\n      keccak256\n        /* \"contracts/4_ToDoList.sol\":1042:1049  _taskId */\n      dup3\n        /* \"contracts/4_ToDoList.sol\":1024:1050  tasks[msg.sender][_taskId] */\n      dup2\n      sload\n      dup2\n      lt\n      tag_40\n      jumpi\n      tag_41\n      tag_42\n      jump\t// in\n    tag_41:\n    tag_40:\n      swap1\n      0x00\n      mstore\n      keccak256(0x00, 0x20)\n      swap1\n      0x02\n      mul\n      add\n        /* \"contracts/4_ToDoList.sol\":1024:1060  tasks[msg.sender][_taskId].completed */\n      0x01\n      add\n      0x00\n        /* \"contracts/4_ToDoList.sol\":1024:1067  tasks[msg.sender][_taskId].completed = true */\n      0x0100\n      exp\n      dup2\n      sload\n      dup2\n      0xff\n      mul\n      not\n      and\n      swap1\n      dup4\n      iszero\n      iszero\n      mul\n      or\n      swap1\n      sstore\n      pop\n        /* \"contracts/4_ToDoList.sol\":1096:1106  msg.sender */\n      caller\n        /* \"contracts/4_ToDoList.sol\":1082:1116  TaskCompleted(msg.sender, _taskId) */\n      0xffffffffffffffffffffffffffffffffffffffff\n      and\n      0xf684d89bb0f42287bf32838774e4b7f8a60c11804b3c6d1791fa55f306792643\n        /* \"contracts/4_ToDoList.sol\":1108:1115  _taskId */\n      dup3\n        /* \"contracts/4_ToDoList.sol\":1082:1116  TaskCompleted(msg.sender, _taskId) */\n      mload(0x40)\n      tag_44\n      swap2\n      swap1\n      tag_23\n      jump\t// in\n    tag_44:\n      mload(0x40)\n      dup1\n      swap2\n      sub\n      swap1\n      log2\n        /* \"contracts/4_ToDoList.sol\":887:1123  function markTaskCompleted(uint256 _taskId) public {... */\n      pop\n      jump\t// out\n        /* \"contracts/4_ToDoList.sol\":1334:1613  function getTask(uint256 _taskId) public view returns (string memory content, bool completed) {... */\n    tag_15:\n        /* \"contracts/4_ToDoList.sol\":1389:1410  string memory content */\n      0x60\n        /* \"contracts/4_ToDoList.sol\":1412:1426  bool completed */\n      0x00\n        /* \"contracts/4_ToDoList.sol\":1456:1461  tasks */\n      dup1\n        /* \"contracts/4_ToDoList.sol\":1456:1473  tasks[msg.sender] */\n      0x00\n        /* \"contracts/4_ToDoList.sol\":1462:1472  msg.sender */\n      caller\n        /* \"contracts/4_ToDoList.sol\":1456:1473  tasks[msg.sender] */\n      0xffffffffffffffffffffffffffffffffffffffff\n      and\n      0xffffffffffffffffffffffffffffffffffffffff\n      and\n      dup2\n      mstore\n      0x20\n      add\n      swap1\n      dup2\n      mstore\n      0x20\n      add\n      0x00\n      keccak256\n        /* \"contracts/4_ToDoList.sol\":1456:1480  tasks[msg.sender].length */\n      dup1\n      sload\n      swap1\n      pop\n        /* \"contracts/4_ToDoList.sol\":1446:1453  _taskId */\n      dup4\n        /* \"contracts/4_ToDoList.sol\":1446:1480  _taskId < tasks[msg.sender].length */\n      lt\n        /* \"contracts/4_ToDoList.sol\":1438:1504  require(_taskId < tasks[msg.sender].length, \"Task does not exist\") */\n      tag_46\n      jumpi\n      mload(0x40)\n      0x08c379a000000000000000000000000000000000000000000000000000000000\n      dup2\n      mstore\n      0x04\n      add\n      tag_47\n      swap1\n      tag_39\n      jump\t// in\n    tag_47:\n      mload(0x40)\n      dup1\n      swap2\n      sub\n      swap1\n      revert\n    tag_46:\n        /* \"contracts/4_ToDoList.sol\":1514:1530  Task memory task */\n      0x00\n        /* \"contracts/4_ToDoList.sol\":1533:1538  tasks */\n      dup1\n        /* \"contracts/4_ToDoList.sol\":1533:1550  tasks[msg.sender] */\n      0x00\n        /* \"contracts/4_ToDoList.sol\":1539:1549  msg.sender */\n      caller\n        /* \"contracts/4_ToDoList.sol\":1533:1550  tasks[msg.sender] */\n      0xffffffffffffffffffffffffffffffffffffffff\n      and\n      0xffffffffffffffffffffffffffffffffffffffff\n      and\n      dup2\n      mstore\n      0x20\n      add\n      swap1\n      dup2\n      mstore\n      0x20\n      add\n      0x00\n      keccak256\n        /* \"contracts/4_ToDoList.sol\":1551:1558  _taskId */\n      dup5\n        /* \"contracts/4_ToDoList.sol\":1533:1559  tasks[msg.sender][_taskId] */\n      dup2\n      sload\n      dup2\n      lt\n      tag_48\n      jumpi\n      tag_49\n      tag_42\n      jump\t// in\n    tag_49:\n    tag_48:\n      swap1\n      0x00\n      mstore\n      keccak256(0x00, 0x20)\n      swap1\n      0x02\n      mul\n      add\n        /* \"contracts/4_ToDoList.sol\":1514:1559  Task memory task = tasks[msg.sender][_taskId] */\n      mload(0x40)\n      dup1\n      0x40\n      add\n      0x40\n      mstore\n      swap1\n      dup2\n      0x00\n      dup3\n      add\n      dup1\n      sload\n      tag_51\n      swap1\n      tag_52\n      jump\t// in\n    tag_51:\n      dup1\n      0x1f\n      add\n      0x20\n      dup1\n      swap2\n      div\n      mul\n      0x20\n      add\n      mload(0x40)\n      swap1\n      dup2\n      add\n      0x40\n      mstore\n      dup1\n      swap3\n      swap2\n      swap1\n      dup2\n      dup2\n      mstore\n      0x20\n      add\n      dup3\n      dup1\n      sload\n      tag_53\n      swap1\n      tag_52\n      jump\t// in\n    tag_53:\n      dup1\n      iszero\n      tag_54\n      jumpi\n      dup1\n      0x1f\n      lt\n      tag_55\n      jumpi\n      0x0100\n      dup1\n      dup4\n      sload\n      div\n      mul\n      dup4\n      mstore\n      swap2\n      0x20\n      add\n      swap2\n      jump(tag_54)\n    tag_55:\n      dup3\n      add\n      swap2\n      swap1\n      0x00\n      mstore\n      keccak256(0x00, 0x20)\n      swap1\n    tag_56:\n      dup2\n      sload\n      dup2\n      mstore\n      swap1\n      0x01\n      add\n      swap1\n      0x20\n      add\n      dup1\n      dup4\n      gt\n      tag_56\n      jumpi\n      dup3\n      swap1\n      sub\n      0x1f\n      and\n      dup3\n      add\n      swap2\n    tag_54:\n      pop\n      pop\n      pop\n      pop\n      pop\n      dup2\n      mstore\n      0x20\n      add\n      0x01\n      dup3\n      add\n      0x00\n      swap1\n      sload\n      swap1\n      0x0100\n      exp\n      swap1\n      div\n      0xff\n      and\n      iszero\n      iszero\n      iszero\n      iszero\n      dup2\n      mstore\n      pop\n      pop\n      swap1\n      pop\n        /* \"contracts/4_ToDoList.sol\":1577:1581  task */\n      dup1\n        /* \"contracts/4_ToDoList.sol\":1577:1589  task.content */\n      0x00\n      add\n      mload\n        /* \"contracts/4_ToDoList.sol\":1591:1595  task */\n      dup2\n        /* \"contracts/4_ToDoList.sol\":1591:1605  task.completed */\n      0x20\n      add\n      mload\n        /* \"contracts/4_ToDoList.sol\":1569:1606  return (task.content, task.completed) */\n      swap3\n      pop\n      swap3\n      pop\n      pop\n        /* \"contracts/4_ToDoList.sol\":1334:1613  function getTask(uint256 _taskId) public view returns (string memory content, bool completed) {... */\n      swap2\n      pop\n      swap2\n      jump\t// out\n        /* \"contracts/4_ToDoList.sol\":499:837  function addTask(string memory _content) public returns (uint256) {... */\n    tag_21:\n        /* \"contracts/4_ToDoList.sol\":556:563  uint256 */\n      0x00\n        /* \"contracts/4_ToDoList.sol\":575:580  tasks */\n      dup1\n        /* \"contracts/4_ToDoList.sol\":575:592  tasks[msg.sender] */\n      0x00\n        /* \"contracts/4_ToDoList.sol\":581:591  msg.sender */\n      caller\n        /* \"contracts/4_ToDoList.sol\":575:592  tasks[msg.sender] */\n      0xffffffffffffffffffffffffffffffffffffffff\n      and\n      0xffffffffffffffffffffffffffffffffffffffff\n      and\n      dup2\n      mstore\n      0x20\n      add\n      swap1\n      dup2\n      mstore\n      0x20\n      add\n      0x00\n      keccak256\n        /* \"contracts/4_ToDoList.sol\":598:675  Task({... */\n      mload(0x40)\n      dup1\n      0x40\n      add\n      0x40\n      mstore\n      dup1\n        /* \"contracts/4_ToDoList.sol\":626:634  _content */\n      dup5\n        /* \"contracts/4_ToDoList.sol\":598:675  Task({... */\n      dup2\n      mstore\n      0x20\n      add\n        /* \"contracts/4_ToDoList.sol\":659:664  false */\n      0x00\n        /* \"contracts/4_ToDoList.sol\":598:675  Task({... */\n      iszero\n      iszero\n      dup2\n      mstore\n      pop\n        /* \"contracts/4_ToDoList.sol\":575:676  tasks[msg.sender].push(Task({... */\n      swap1\n      dup1\n      0x01\n      dup2\n      sload\n      add\n      dup1\n      dup3\n      sstore\n      dup1\n      swap2\n      pop\n      pop\n      0x01\n      swap1\n      sub\n      swap1\n      0x00\n      mstore\n      keccak256(0x00, 0x20)\n      swap1\n      0x02\n      mul\n      add\n      0x00\n      swap1\n      swap2\n      swap1\n      swap2\n      swap1\n      swap2\n      pop\n      0x00\n      dup3\n      add\n      mload\n      dup2\n      0x00\n      add\n      swap1\n      dup2\n      tag_59\n      swap2\n      swap1\n      tag_60\n      jump\t// in\n    tag_59:\n      pop\n      0x20\n      dup3\n      add\n      mload\n      dup2\n      0x01\n      add\n      exp(0x0100, 0x00)\n      dup2\n      sload\n      dup2\n      0xff\n      mul\n      not\n      and\n      swap1\n      dup4\n      iszero\n      iszero\n      mul\n      or\n      swap1\n      sstore\n      pop\n      pop\n      pop\n        /* \"contracts/4_ToDoList.sol\":686:700  uint256 taskId */\n      0x00\n        /* \"contracts/4_ToDoList.sol\":730:731  1 */\n      0x01\n        /* \"contracts/4_ToDoList.sol\":703:708  tasks */\n      0x00\n        /* \"contracts/4_ToDoList.sol\":703:720  tasks[msg.sender] */\n      dup1\n        /* \"contracts/4_ToDoList.sol\":709:719  msg.sender */\n      caller\n        /* \"contracts/4_ToDoList.sol\":703:720  tasks[msg.sender] */\n      0xffffffffffffffffffffffffffffffffffffffff\n      and\n      0xffffffffffffffffffffffffffffffffffffffff\n      and\n      dup2\n      mstore\n      0x20\n      add\n      swap1\n      dup2\n      mstore\n      0x20\n      add\n      0x00\n      keccak256\n        /* \"contracts/4_ToDoList.sol\":703:727  tasks[msg.sender].length */\n      dup1\n      sload\n      swap1\n      pop\n        /* \"contracts/4_ToDoList.sol\":703:731  tasks[msg.sender].length - 1 */\n      tag_61\n      swap2\n      swap1\n      tag_62\n      jump\t// in\n    tag_61:\n        /* \"contracts/4_ToDoList.sol\":686:731  uint256 taskId = tasks[msg.sender].length - 1 */\n      swap1\n      pop\n        /* \"contracts/4_ToDoList.sol\":756:766  msg.sender */\n      caller\n        /* \"contracts/4_ToDoList.sol\":746:785  TaskAdded(msg.sender, taskId, _content) */\n      0xffffffffffffffffffffffffffffffffffffffff\n      and\n      0x793f49aab3b9e0d3125d745773b78ac45236f2beeed7c6296e60911e17a0de42\n        /* \"contracts/4_ToDoList.sol\":768:774  taskId */\n      dup3\n        /* \"contracts/4_ToDoList.sol\":776:784  _content */\n      dup6\n        /* \"contracts/4_ToDoList.sol\":746:785  TaskAdded(msg.sender, taskId, _content) */\n      mload(0x40)\n      tag_63\n      swap3\n      swap2\n      swap1\n      tag_64\n      jump\t// in\n    tag_63:\n      mload(0x40)\n      dup1\n      swap2\n      sub\n      swap1\n      log2\n        /* \"contracts/4_ToDoList.sol\":802:808  taskId */\n      dup1\n        /* \"contracts/4_ToDoList.sol\":795:808  return taskId */\n      swap2\n      pop\n      pop\n        /* \"contracts/4_ToDoList.sol\":499:837  function addTask(string memory _content) public returns (uint256) {... */\n      swap2\n      swap1\n      pop\n      jump\t// out\n        /* \"contracts/4_ToDoList.sol\":154:193  mapping(address => Task[]) public tasks */\n    tag_27:\n      mstore(0x20, 0x00)\n      dup2\n      0x00\n      mstore\n      keccak256(0x00, 0x40)\n      dup2\n      dup2\n      sload\n      dup2\n      lt\n      tag_65\n      jumpi\n      0x00\n      dup1\n      revert\n    tag_65:\n      swap1\n      0x00\n      mstore\n      keccak256(0x00, 0x20)\n      swap1\n      0x02\n      mul\n      add\n      0x00\n      swap2\n      pop\n      swap2\n      pop\n      pop\n      dup1\n      0x00\n      add\n      dup1\n      sload\n      tag_67\n      swap1\n      tag_52\n      jump\t// in\n    tag_67:\n      dup1\n      0x1f\n      add\n      0x20\n      dup1\n      swap2\n      div\n      mul\n      0x20\n      add\n      mload(0x40)\n      swap1\n      dup2\n      add\n      0x40\n      mstore\n      dup1\n      swap3\n      swap2\n      swap1\n      dup2\n      dup2\n      mstore\n      0x20\n      add\n      dup3\n      dup1\n      sload\n      tag_68\n      swap1\n      tag_52\n      jump\t// in\n    tag_68:\n      dup1\n      iszero\n      tag_69\n      jumpi\n      dup1\n      0x1f\n      lt\n      tag_70\n      jumpi\n      0x0100\n      dup1\n      dup4\n      sload\n      div\n      mul\n      dup4\n      mstore\n      swap2\n      0x20\n      add\n      swap2\n      jump(tag_69)\n    tag_70:\n      dup3\n      add\n      swap2\n      swap1\n      0x00\n      mstore\n      keccak256(0x00, 0x20)\n      swap1\n    tag_71:\n      dup2\n      sload\n      dup2\n      mstore\n      swap1\n      0x01\n      add\n      swap1\n      0x20\n      add\n      dup1\n      dup4\n      gt\n      tag_71\n      jumpi\n      dup3\n      swap1\n      sub\n      0x1f\n      and\n      dup3\n      add\n      swap2\n    tag_69:\n      pop\n      pop\n      pop\n      pop\n      pop\n      swap1\n      dup1\n      0x01\n      add\n      0x00\n      swap1\n      sload\n      swap1\n      0x0100\n      exp\n      swap1\n      div\n      0xff\n      and\n      swap1\n      pop\n      dup3\n      jump\t// out\n        /* \"contracts/4_ToDoList.sol\":1681:2314  function getAllTasks() public view returns (uint256[] memory, string[] memory, bool[] memory) {... */\n    tag_30:\n        /* \"contracts/4_ToDoList.sol\":1725:1741  uint256[] memory */\n      0x60\n        /* \"contracts/4_ToDoList.sol\":1743:1758  string[] memory */\n      dup1\n        /* \"contracts/4_ToDoList.sol\":1760:1773  bool[] memory */\n      0x60\n        /* \"contracts/4_ToDoList.sol\":1785:1802  uint256 taskCount */\n      0x00\n        /* \"contracts/4_ToDoList.sol\":1805:1810  tasks */\n      dup1\n        /* \"contracts/4_ToDoList.sol\":1805:1822  tasks[msg.sender] */\n      0x00\n        /* \"contracts/4_ToDoList.sol\":1811:1821  msg.sender */\n      caller\n        /* \"contracts/4_ToDoList.sol\":1805:1822  tasks[msg.sender] */\n      0xffffffffffffffffffffffffffffffffffffffff\n      and\n      0xffffffffffffffffffffffffffffffffffffffff\n      and\n      dup2\n      mstore\n      0x20\n      add\n      swap1\n      dup2\n      mstore\n      0x20\n      add\n      0x00\n      keccak256\n        /* \"contracts/4_ToDoList.sol\":1805:1829  tasks[msg.sender].length */\n      dup1\n      sload\n      swap1\n      pop\n        /* \"contracts/4_ToDoList.sol\":1785:1829  uint256 taskCount = tasks[msg.sender].length */\n      swap1\n      pop\n        /* \"contracts/4_ToDoList.sol\":1839:1863  uint256[] memory taskIds */\n      0x00\n        /* \"contracts/4_ToDoList.sol\":1880:1889  taskCount */\n      dup2\n        /* \"contracts/4_ToDoList.sol\":1866:1890  new uint256[](taskCount) */\n      0xffffffffffffffff\n      dup2\n      gt\n      iszero\n      tag_73\n      jumpi\n      tag_74\n      tag_75\n      jump\t// in\n    tag_74:\n    tag_73:\n      mload(0x40)\n      swap1\n      dup1\n      dup3\n      mstore\n      dup1\n      0x20\n      mul\n      0x20\n      add\n      dup3\n      add\n      0x40\n      mstore\n      dup1\n      iszero\n      tag_76\n      jumpi\n      dup2\n      0x20\n      add\n      0x20\n      dup3\n      mul\n      dup1\n      calldatasize\n      dup4\n      calldatacopy\n      dup1\n      dup3\n      add\n      swap2\n      pop\n      pop\n      swap1\n      pop\n    tag_76:\n      pop\n        /* \"contracts/4_ToDoList.sol\":1839:1890  uint256[] memory taskIds = new uint256[](taskCount) */\n      swap1\n      pop\n        /* \"contracts/4_ToDoList.sol\":1900:1924  string[] memory contents */\n      0x00\n        /* \"contracts/4_ToDoList.sol\":1940:1949  taskCount */\n      dup3\n        /* \"contracts/4_ToDoList.sol\":1927:1950  new string[](taskCount) */\n      0xffffffffffffffff\n      dup2\n      gt\n      iszero\n      tag_77\n      jumpi\n      tag_78\n      tag_75\n      jump\t// in\n    tag_78:\n    tag_77:\n      mload(0x40)\n      swap1\n      dup1\n      dup3\n      mstore\n      dup1\n      0x20\n      mul\n      0x20\n      add\n      dup3\n      add\n      0x40\n      mstore\n      dup1\n      iszero\n      tag_79\n      jumpi\n      dup2\n      0x20\n      add\n    tag_80:\n      0x60\n      dup2\n      mstore\n      0x20\n      add\n      swap1\n      0x01\n      swap1\n      sub\n      swap1\n      dup2\n      tag_80\n      jumpi\n      swap1\n      pop\n    tag_79:\n      pop\n        /* \"contracts/4_ToDoList.sol\":1900:1950  string[] memory contents = new string[](taskCount) */\n      swap1\n      pop\n        /* \"contracts/4_ToDoList.sol\":1960:1991  bool[] memory completedStatuses */\n      0x00\n        /* \"contracts/4_ToDoList.sol\":2005:2014  taskCount */\n      dup4\n        /* \"contracts/4_ToDoList.sol\":1994:2015  new bool[](taskCount) */\n      0xffffffffffffffff\n      dup2\n      gt\n      iszero\n      tag_81\n      jumpi\n      tag_82\n      tag_75\n      jump\t// in\n    tag_82:\n    tag_81:\n      mload(0x40)\n      swap1\n      dup1\n      dup3\n      mstore\n      dup1\n      0x20\n      mul\n      0x20\n      add\n      dup3\n      add\n      0x40\n      mstore\n      dup1\n      iszero\n      tag_83\n      jumpi\n      dup2\n      0x20\n      add\n      0x20\n      dup3\n      mul\n      dup1\n      calldatasize\n      dup4\n      calldatacopy\n      dup1\n      dup3\n      add\n      swap2\n      pop\n      pop\n      swap1\n      pop\n    tag_83:\n      pop\n        /* \"contracts/4_ToDoList.sol\":1960:2015  bool[] memory completedStatuses = new bool[](taskCount) */\n      swap1\n      pop\n        /* \"contracts/4_ToDoList.sol\":2031:2040  uint256 i */\n      0x00\n        /* \"contracts/4_ToDoList.sol\":2026:2252  for (uint256 i = 0; i < taskCount; i++) {... */\n    tag_84:\n        /* \"contracts/4_ToDoList.sol\":2050:2059  taskCount */\n      dup5\n        /* \"contracts/4_ToDoList.sol\":2046:2047  i */\n      dup2\n        /* \"contracts/4_ToDoList.sol\":2046:2059  i < taskCount */\n      lt\n        /* \"contracts/4_ToDoList.sol\":2026:2252  for (uint256 i = 0; i < taskCount; i++) {... */\n      iszero\n      tag_85\n      jumpi\n        /* \"contracts/4_ToDoList.sol\":2093:2094  i */\n      dup1\n        /* \"contracts/4_ToDoList.sol\":2080:2087  taskIds */\n      dup5\n        /* \"contracts/4_ToDoList.sol\":2088:2089  i */\n      dup3\n        /* \"contracts/4_ToDoList.sol\":2080:2090  taskIds[i] */\n      dup2\n      mload\n      dup2\n      lt\n      tag_87\n      jumpi\n      tag_88\n      tag_42\n      jump\t// in\n    tag_88:\n    tag_87:\n      0x20\n      mul\n      0x20\n      add\n      add\n        /* \"contracts/4_ToDoList.sol\":2080:2094  taskIds[i] = i */\n      dup2\n      dup2\n      mstore\n      pop\n      pop\n        /* \"contracts/4_ToDoList.sol\":2146:2151  tasks */\n      0x00\n        /* \"contracts/4_ToDoList.sol\":2146:2163  tasks[msg.sender] */\n      dup1\n        /* \"contracts/4_ToDoList.sol\":2152:2162  msg.sender */\n      caller\n        /* \"contracts/4_ToDoList.sol\":2146:2163  tasks[msg.sender] */\n      0xffffffffffffffffffffffffffffffffffffffff\n      and\n      0xffffffffffffffffffffffffffffffffffffffff\n      and\n      dup2\n      mstore\n      0x20\n      add\n      swap1\n      dup2\n      mstore\n      0x20\n      add\n      0x00\n      keccak256\n        /* \"contracts/4_ToDoList.sol\":2164:2165  i */\n      dup2\n        /* \"contracts/4_ToDoList.sol\":2146:2166  tasks[msg.sender][i] */\n      dup2\n      sload\n      dup2\n      lt\n      tag_89\n      jumpi\n      tag_90\n      tag_42\n      jump\t// in\n    tag_90:\n    tag_89:\n      swap1\n      0x00\n      mstore\n      keccak256(0x00, 0x20)\n      swap1\n      0x02\n      mul\n      add\n        /* \"contracts/4_ToDoList.sol\":2146:2174  tasks[msg.sender][i].content */\n      0x00\n      add\n        /* \"contracts/4_ToDoList.sol\":2132:2174  contents[i] = tasks[msg.sender][i].content */\n      dup1\n      sload\n      tag_92\n      swap1\n      tag_52\n      jump\t// in\n    tag_92:\n      dup1\n      0x1f\n      add\n      0x20\n      dup1\n      swap2\n      div\n      mul\n      0x20\n      add\n      mload(0x40)\n      swap1\n      dup2\n      add\n      0x40\n      mstore\n      dup1\n      swap3\n      swap2\n      swap1\n      dup2\n      dup2\n      mstore\n      0x20\n      add\n      dup3\n      dup1\n      sload\n      tag_93\n      swap1\n      tag_52\n      jump\t// in\n    tag_93:\n      dup1\n      iszero\n      tag_94\n      jumpi\n      dup1\n      0x1f\n      lt\n      tag_95\n      jumpi\n      0x0100\n      dup1\n      dup4\n      sload\n      div\n      mul\n      dup4\n      mstore\n      swap2\n      0x20\n      add\n      swap2\n      jump(tag_94)\n    tag_95:\n      dup3\n      add\n      swap2\n      swap1\n      0x00\n      mstore\n      keccak256(0x00, 0x20)\n      swap1\n    tag_96:\n      dup2\n      sload\n      dup2\n      mstore\n      swap1\n      0x01\n      add\n      swap1\n      0x20\n      add\n      dup1\n      dup4\n      gt\n      tag_96\n      jumpi\n      dup3\n      swap1\n      sub\n      0x1f\n      and\n      dup3\n      add\n      swap2\n    tag_94:\n      pop\n      pop\n      pop\n      pop\n      pop\n        /* \"contracts/4_ToDoList.sol\":2132:2140  contents */\n      dup4\n        /* \"contracts/4_ToDoList.sol\":2141:2142  i */\n      dup3\n        /* \"contracts/4_ToDoList.sol\":2132:2143  contents[i] */\n      dup2\n      mload\n      dup2\n      lt\n      tag_97\n      jumpi\n      tag_98\n      tag_42\n      jump\t// in\n    tag_98:\n    tag_97:\n      0x20\n      mul\n      0x20\n      add\n      add\n        /* \"contracts/4_ToDoList.sol\":2132:2174  contents[i] = tasks[msg.sender][i].content */\n      dup2\n      swap1\n      mstore\n      pop\n        /* \"contracts/4_ToDoList.sol\":2211:2216  tasks */\n      0x00\n        /* \"contracts/4_ToDoList.sol\":2211:2228  tasks[msg.sender] */\n      dup1\n        /* \"contracts/4_ToDoList.sol\":2217:2227  msg.sender */\n      caller\n        /* \"contracts/4_ToDoList.sol\":2211:2228  tasks[msg.sender] */\n      0xffffffffffffffffffffffffffffffffffffffff\n      and\n      0xffffffffffffffffffffffffffffffffffffffff\n      and\n      dup2\n      mstore\n      0x20\n      add\n      swap1\n      dup2\n      mstore\n      0x20\n      add\n      0x00\n      keccak256\n        /* \"contracts/4_ToDoList.sol\":2229:2230  i */\n      dup2\n        /* \"contracts/4_ToDoList.sol\":2211:2231  tasks[msg.sender][i] */\n      dup2\n      sload\n      dup2\n      lt\n      tag_99\n      jumpi\n      tag_100\n      tag_42\n      jump\t// in\n    tag_100:\n    tag_99:\n      swap1\n      0x00\n      mstore\n      keccak256(0x00, 0x20)\n      swap1\n      0x02\n      mul\n      add\n        /* \"contracts/4_ToDoList.sol\":2211:2241  tasks[msg.sender][i].completed */\n      0x01\n      add\n      0x00\n      swap1\n      sload\n      swap1\n      0x0100\n      exp\n      swap1\n      div\n      0xff\n      and\n        /* \"contracts/4_ToDoList.sol\":2188:2205  completedStatuses */\n      dup3\n        /* \"contracts/4_ToDoList.sol\":2206:2207  i */\n      dup3\n        /* \"contracts/4_ToDoList.sol\":2188:2208  completedStatuses[i] */\n      dup2\n      mload\n      dup2\n      lt\n      tag_102\n      jumpi\n      tag_103\n      tag_42\n      jump\t// in\n    tag_103:\n    tag_102:\n      0x20\n      mul\n      0x20\n      add\n      add\n        /* \"contracts/4_ToDoList.sol\":2188:2241  completedStatuses[i] = tasks[msg.sender][i].completed */\n      swap1\n      iszero\n      iszero\n      swap1\n      dup2\n      iszero\n      iszero\n      dup2\n      mstore\n      pop\n      pop\n        /* \"contracts/4_ToDoList.sol\":2061:2064  i++ */\n      dup1\n      dup1\n      0x01\n      add\n      swap2\n      pop\n      pop\n        /* \"contracts/4_ToDoList.sol\":2026:2252  for (uint256 i = 0; i < taskCount; i++) {... */\n      jump(tag_84)\n    tag_85:\n      pop\n        /* \"contracts/4_ToDoList.sol\":2270:2277  taskIds */\n      dup3\n        /* \"contracts/4_ToDoList.sol\":2279:2287  contents */\n      dup3\n        /* \"contracts/4_ToDoList.sol\":2289:2306  completedStatuses */\n      dup3\n        /* \"contracts/4_ToDoList.sol\":2262:2307  return (taskIds, contents, completedStatuses) */\n      swap7\n      pop\n      swap7\n      pop\n      swap7\n      pop\n      pop\n      pop\n      pop\n      pop\n        /* \"contracts/4_ToDoList.sol\":1681:2314  function getAllTasks() public view returns (uint256[] memory, string[] memory, bool[] memory) {... */\n      swap1\n      swap2\n      swap3\n      jump\t// out\n        /* \"contracts/4_ToDoList.sol\":1187:1289  function getTaskCount() public view returns (uint256) {... */\n    tag_34:\n        /* \"contracts/4_ToDoList.sol\":1232:1239  uint256 */\n      0x00\n        /* \"contracts/4_ToDoList.sol\":1258:1263  tasks */\n      dup1\n        /* \"contracts/4_ToDoList.sol\":1258:1275  tasks[msg.sender] */\n      0x00\n        /* \"contracts/4_ToDoList.sol\":1264:1274  msg.sender */\n      caller\n        /* \"contracts/4_ToDoList.sol\":1258:1275  tasks[msg.sender] */\n      0xffffffffffffffffffffffffffffffffffffffff\n      and\n      0xffffffffffffffffffffffffffffffffffffffff\n      and\n      dup2\n      mstore\n      0x20\n      add\n      swap1\n      dup2\n      mstore\n      0x20\n      add\n      0x00\n      keccak256\n        /* \"contracts/4_ToDoList.sol\":1258:1282  tasks[msg.sender].length */\n      dup1\n      sload\n      swap1\n      pop\n        /* \"contracts/4_ToDoList.sol\":1251:1282  return tasks[msg.sender].length */\n      swap1\n      pop\n        /* \"contracts/4_ToDoList.sol\":1187:1289  function getTaskCount() public view returns (uint256) {... */\n      swap1\n      jump\t// out\n        /* \"#utility.yul\":7:82   */\n    tag_105:\n        /* \"#utility.yul\":40:46   */\n      0x00\n        /* \"#utility.yul\":73:75   */\n      0x40\n        /* \"#utility.yul\":67:76   */\n      mload\n        /* \"#utility.yul\":57:76   */\n      swap1\n      pop\n        /* \"#utility.yul\":7:82   */\n      swap1\n      jump\t// out\n        /* \"#utility.yul\":88:205   */\n    tag_106:\n        /* \"#utility.yul\":197:198   */\n      0x00\n        /* \"#utility.yul\":194:195   */\n      dup1\n        /* \"#utility.yul\":187:199   */\n      revert\n        /* \"#utility.yul\":211:328   */\n    tag_107:\n        /* \"#utility.yul\":320:321   */\n      0x00\n        /* \"#utility.yul\":317:318   */\n      dup1\n        /* \"#utility.yul\":310:322   */\n      revert\n        /* \"#utility.yul\":334:411   */\n    tag_108:\n        /* \"#utility.yul\":371:378   */\n      0x00\n        /* \"#utility.yul\":400:405   */\n      dup2\n        /* \"#utility.yul\":389:405   */\n      swap1\n      pop\n        /* \"#utility.yul\":334:411   */\n      swap2\n      swap1\n      pop\n      jump\t// out\n        /* \"#utility.yul\":417:539   */\n    tag_109:\n        /* \"#utility.yul\":490:514   */\n      tag_178\n        /* \"#utility.yul\":508:513   */\n      dup2\n        /* \"#utility.yul\":490:514   */\n      tag_108\n      jump\t// in\n    tag_178:\n        /* \"#utility.yul\":483:488   */\n      dup2\n        /* \"#utility.yul\":480:515   */\n      eq\n        /* \"#utility.yul\":470:533   */\n      tag_179\n      jumpi\n        /* \"#utility.yul\":529:530   */\n      0x00\n        /* \"#utility.yul\":526:527   */\n      dup1\n        /* \"#utility.yul\":519:531   */\n      revert\n        /* \"#utility.yul\":470:533   */\n    tag_179:\n        /* \"#utility.yul\":417:539   */\n      pop\n      jump\t// out\n        /* \"#utility.yul\":545:684   */\n    tag_110:\n        /* \"#utility.yul\":591:596   */\n      0x00\n        /* \"#utility.yul\":629:635   */\n      dup2\n        /* \"#utility.yul\":616:636   */\n      calldataload\n        /* \"#utility.yul\":607:636   */\n      swap1\n      pop\n        /* \"#utility.yul\":645:678   */\n      tag_181\n        /* \"#utility.yul\":672:677   */\n      dup2\n        /* \"#utility.yul\":645:678   */\n      tag_109\n      jump\t// in\n    tag_181:\n        /* \"#utility.yul\":545:684   */\n      swap3\n      swap2\n      pop\n      pop\n      jump\t// out\n        /* \"#utility.yul\":690:1019   */\n    tag_11:\n        /* \"#utility.yul\":749:755   */\n      0x00\n        /* \"#utility.yul\":798:800   */\n      0x20\n        /* \"#utility.yul\":786:795   */\n      dup3\n        /* \"#utility.yul\":777:784   */\n      dup5\n        /* \"#utility.yul\":773:796   */\n      sub\n        /* \"#utility.yul\":769:801   */\n      slt\n        /* \"#utility.yul\":766:885   */\n      iszero\n      tag_183\n      jumpi\n        /* \"#utility.yul\":804:883   */\n      tag_184\n      tag_106\n      jump\t// in\n    tag_184:\n        /* \"#utility.yul\":766:885   */\n    tag_183:\n        /* \"#utility.yul\":924:925   */\n      0x00\n        /* \"#utility.yul\":949:1002   */\n      tag_185\n        /* \"#utility.yul\":994:1001   */\n      dup5\n        /* \"#utility.yul\":985:991   */\n      dup3\n        /* \"#utility.yul\":974:983   */\n      dup6\n        /* \"#utility.yul\":970:992   */\n      add\n        /* \"#utility.yul\":949:1002   */\n      tag_110\n      jump\t// in\n    tag_185:\n        /* \"#utility.yul\":939:1002   */\n      swap2\n      pop\n        /* \"#utility.yul\":895:1012   */\n      pop\n        /* \"#utility.yul\":690:1019   */\n      swap3\n      swap2\n      pop\n      pop\n      jump\t// out\n        /* \"#utility.yul\":1025:1124   */\n    tag_111:\n        /* \"#utility.yul\":1077:1083   */\n      0x00\n        /* \"#utility.yul\":1111:1116   */\n      dup2\n        /* \"#utility.yul\":1105:1117   */\n      mload\n        /* \"#utility.yul\":1095:1117   */\n      swap1\n      pop\n        /* \"#utility.yul\":1025:1124   */\n      swap2\n      swap1\n      pop\n      jump\t// out\n        /* \"#utility.yul\":1130:1299   */\n    tag_112:\n        /* \"#utility.yul\":1214:1225   */\n      0x00\n        /* \"#utility.yul\":1248:1254   */\n      dup3\n        /* \"#utility.yul\":1243:1246   */\n      dup3\n        /* \"#utility.yul\":1236:1255   */\n      mstore\n        /* \"#utility.yul\":1288:1292   */\n      0x20\n        /* \"#utility.yul\":1283:1286   */\n      dup3\n        /* \"#utility.yul\":1279:1293   */\n      add\n        /* \"#utility.yul\":1264:1293   */\n      swap1\n      pop\n        /* \"#utility.yul\":1130:1299   */\n      swap3\n      swap2\n      pop\n      pop\n      jump\t// out\n        /* \"#utility.yul\":1305:1444   */\n    tag_113:\n        /* \"#utility.yul\":1394:1400   */\n      dup3\n        /* \"#utility.yul\":1389:1392   */\n      dup2\n        /* \"#utility.yul\":1384:1387   */\n      dup4\n        /* \"#utility.yul\":1378:1401   */\n      mcopy\n        /* \"#utility.yul\":1435:1436   */\n      0x00\n        /* \"#utility.yul\":1426:1432   */\n      dup4\n        /* \"#utility.yul\":1421:1424   */\n      dup4\n        /* \"#utility.yul\":1417:1433   */\n      add\n        /* \"#utility.yul\":1410:1437   */\n      mstore\n        /* \"#utility.yul\":1305:1444   */\n      pop\n      pop\n      pop\n      jump\t// out\n        /* \"#utility.yul\":1450:1552   */\n    tag_114:\n        /* \"#utility.yul\":1491:1497   */\n      0x00\n        /* \"#utility.yul\":1542:1544   */\n      0x1f\n        /* \"#utility.yul\":1538:1545   */\n      not\n        /* \"#utility.yul\":1533:1535   */\n      0x1f\n        /* \"#utility.yul\":1526:1531   */\n      dup4\n        /* \"#utility.yul\":1522:1536   */\n      add\n        /* \"#utility.yul\":1518:1546   */\n      and\n        /* \"#utility.yul\":1508:1546   */\n      swap1\n      pop\n        /* \"#utility.yul\":1450:1552   */\n      swap2\n      swap1\n      pop\n      jump\t// out\n        /* \"#utility.yul\":1558:1935   */\n    tag_115:\n        /* \"#utility.yul\":1646:1649   */\n      0x00\n        /* \"#utility.yul\":1674:1713   */\n      tag_191\n        /* \"#utility.yul\":1707:1712   */\n      dup3\n        /* \"#utility.yul\":1674:1713   */\n      tag_111\n      jump\t// in\n    tag_191:\n        /* \"#utility.yul\":1729:1800   */\n      tag_192\n        /* \"#utility.yul\":1793:1799   */\n      dup2\n        /* \"#utility.yul\":1788:1791   */\n      dup6\n        /* \"#utility.yul\":1729:1800   */\n      tag_112\n      jump\t// in\n    tag_192:\n        /* \"#utility.yul\":1722:1800   */\n      swap4\n      pop\n        /* \"#utility.yul\":1809:1874   */\n      tag_193\n        /* \"#utility.yul\":1867:1873   */\n      dup2\n        /* \"#utility.yul\":1862:1865   */\n      dup6\n        /* \"#utility.yul\":1855:1859   */\n      0x20\n        /* \"#utility.yul\":1848:1853   */\n      dup7\n        /* \"#utility.yul\":1844:1860   */\n      add\n        /* \"#utility.yul\":1809:1874   */\n      tag_113\n      jump\t// in\n    tag_193:\n        /* \"#utility.yul\":1899:1928   */\n      tag_194\n        /* \"#utility.yul\":1921:1927   */\n      dup2\n        /* \"#utility.yul\":1899:1928   */\n      tag_114\n      jump\t// in\n    tag_194:\n        /* \"#utility.yul\":1894:1897   */\n      dup5\n        /* \"#utility.yul\":1890:1929   */\n      add\n        /* \"#utility.yul\":1883:1929   */\n      swap2\n      pop\n        /* \"#utility.yul\":1650:1935   */\n      pop\n        /* \"#utility.yul\":1558:1935   */\n      swap3\n      swap2\n      pop\n      pop\n      jump\t// out\n        /* \"#utility.yul\":1941:2031   */\n    tag_116:\n        /* \"#utility.yul\":1975:1982   */\n      0x00\n        /* \"#utility.yul\":2018:2023   */\n      dup2\n        /* \"#utility.yul\":2011:2024   */\n      iszero\n        /* \"#utility.yul\":2004:2025   */\n      iszero\n        /* \"#utility.yul\":1993:2025   */\n      swap1\n      pop\n        /* \"#utility.yul\":1941:2031   */\n      swap2\n      swap1\n      pop\n      jump\t// out\n        /* \"#utility.yul\":2037:2146   */\n    tag_117:\n        /* \"#utility.yul\":2118:2139   */\n      tag_197\n        /* \"#utility.yul\":2133:2138   */\n      dup2\n        /* \"#utility.yul\":2118:2139   */\n      tag_116\n      jump\t// in\n    tag_197:\n        /* \"#utility.yul\":2113:2116   */\n      dup3\n        /* \"#utility.yul\":2106:2140   */\n      mstore\n        /* \"#utility.yul\":2037:2146   */\n      pop\n      pop\n      jump\t// out\n        /* \"#utility.yul\":2152:2563   */\n    tag_17:\n        /* \"#utility.yul\":2287:2291   */\n      0x00\n        /* \"#utility.yul\":2325:2327   */\n      0x40\n        /* \"#utility.yul\":2314:2323   */\n      dup3\n        /* \"#utility.yul\":2310:2328   */\n      add\n        /* \"#utility.yul\":2302:2328   */\n      swap1\n      pop\n        /* \"#utility.yul\":2374:2383   */\n      dup2\n        /* \"#utility.yul\":2368:2372   */\n      dup2\n        /* \"#utility.yul\":2364:2384   */\n      sub\n        /* \"#utility.yul\":2360:2361   */\n      0x00\n        /* \"#utility.yul\":2349:2358   */\n      dup4\n        /* \"#utility.yul\":2345:2362   */\n      add\n        /* \"#utility.yul\":2338:2385   */\n      mstore\n        /* \"#utility.yul\":2402:2480   */\n      tag_199\n        /* \"#utility.yul\":2475:2479   */\n      dup2\n        /* \"#utility.yul\":2466:2472   */\n      dup6\n        /* \"#utility.yul\":2402:2480   */\n      tag_115\n      jump\t// in\n    tag_199:\n        /* \"#utility.yul\":2394:2480   */\n      swap1\n      pop\n        /* \"#utility.yul\":2490:2556   */\n      tag_200\n        /* \"#utility.yul\":2552:2554   */\n      0x20\n        /* \"#utility.yul\":2541:2550   */\n      dup4\n        /* \"#utility.yul\":2537:2555   */\n      add\n        /* \"#utility.yul\":2528:2534   */\n      dup5\n        /* \"#utility.yul\":2490:2556   */\n      tag_117\n      jump\t// in\n    tag_200:\n        /* \"#utility.yul\":2152:2563   */\n      swap4\n      swap3\n      pop\n      pop\n      pop\n      jump\t// out\n        /* \"#utility.yul\":2569:2686   */\n    tag_118:\n        /* \"#utility.yul\":2678:2679   */\n      0x00\n        /* \"#utility.yul\":2675:2676   */\n      dup1\n        /* \"#utility.yul\":2668:2680   */\n      revert\n        /* \"#utility.yul\":2692:2809   */\n    tag_119:\n        /* \"#utility.yul\":2801:2802   */\n      0x00\n        /* \"#utility.yul\":2798:2799   */\n      dup1\n        /* \"#utility.yul\":2791:2803   */\n      revert\n        /* \"#utility.yul\":2815:2995   */\n    tag_75:\n        /* \"#utility.yul\":2863:2940   */\n      0x4e487b7100000000000000000000000000000000000000000000000000000000\n        /* \"#utility.yul\":2860:2861   */\n      0x00\n        /* \"#utility.yul\":2853:2941   */\n      mstore\n        /* \"#utility.yul\":2960:2964   */\n      0x41\n        /* \"#utility.yul\":2957:2958   */\n      0x04\n        /* \"#utility.yul\":2950:2965   */\n      mstore\n        /* \"#utility.yul\":2984:2988   */\n      0x24\n        /* \"#utility.yul\":2981:2982   */\n      0x00\n        /* \"#utility.yul\":2974:2989   */\n      revert\n        /* \"#utility.yul\":3001:3282   */\n    tag_120:\n        /* \"#utility.yul\":3084:3111   */\n      tag_205\n        /* \"#utility.yul\":3106:3110   */\n      dup3\n        /* \"#utility.yul\":3084:3111   */\n      tag_114\n      jump\t// in\n    tag_205:\n        /* \"#utility.yul\":3076:3082   */\n      dup2\n        /* \"#utility.yul\":3072:3112   */\n      add\n        /* \"#utility.yul\":3214:3220   */\n      dup2\n        /* \"#utility.yul\":3202:3212   */\n      dup2\n        /* \"#utility.yul\":3199:3221   */\n      lt\n        /* \"#utility.yul\":3178:3196   */\n      0xffffffffffffffff\n        /* \"#utility.yul\":3166:3176   */\n      dup3\n        /* \"#utility.yul\":3163:3197   */\n      gt\n        /* \"#utility.yul\":3160:3222   */\n      or\n        /* \"#utility.yul\":3157:3245   */\n      iszero\n      tag_206\n      jumpi\n        /* \"#utility.yul\":3225:3243   */\n      tag_207\n      tag_75\n      jump\t// in\n    tag_207:\n        /* \"#utility.yul\":3157:3245   */\n    tag_206:\n        /* \"#utility.yul\":3265:3275   */\n      dup1\n        /* \"#utility.yul\":3261:3263   */\n      0x40\n        /* \"#utility.yul\":3254:3276   */\n      mstore\n        /* \"#utility.yul\":3044:3282   */\n      pop\n        /* \"#utility.yul\":3001:3282   */\n      pop\n      pop\n      jump\t// out\n        /* \"#utility.yul\":3288:3417   */\n    tag_121:\n        /* \"#utility.yul\":3322:3328   */\n      0x00\n        /* \"#utility.yul\":3349:3369   */\n      tag_209\n      tag_105\n      jump\t// in\n    tag_209:\n        /* \"#utility.yul\":3339:3369   */\n      swap1\n      pop\n        /* \"#utility.yul\":3378:3411   */\n      tag_210\n        /* \"#utility.yul\":3406:3410   */\n      dup3\n        /* \"#utility.yul\":3398:3404   */\n      dup3\n        /* \"#utility.yul\":3378:3411   */\n      tag_120\n      jump\t// in\n    tag_210:\n        /* \"#utility.yul\":3288:3417   */\n      swap2\n      swap1\n      pop\n      jump\t// out\n        /* \"#utility.yul\":3423:3731   */\n    tag_122:\n        /* \"#utility.yul\":3485:3489   */\n      0x00\n        /* \"#utility.yul\":3575:3593   */\n      0xffffffffffffffff\n        /* \"#utility.yul\":3567:3573   */\n      dup3\n        /* \"#utility.yul\":3564:3594   */\n      gt\n        /* \"#utility.yul\":3561:3617   */\n      iszero\n      tag_212\n      jumpi\n        /* \"#utility.yul\":3597:3615   */\n      tag_213\n      tag_75\n      jump\t// in\n    tag_213:\n        /* \"#utility.yul\":3561:3617   */\n    tag_212:\n        /* \"#utility.yul\":3635:3664   */\n      tag_214\n        /* \"#utility.yul\":3657:3663   */\n      dup3\n        /* \"#utility.yul\":3635:3664   */\n      tag_114\n      jump\t// in\n    tag_214:\n        /* \"#utility.yul\":3627:3664   */\n      swap1\n      pop\n        /* \"#utility.yul\":3719:3723   */\n      0x20\n        /* \"#utility.yul\":3713:3717   */\n      dup2\n        /* \"#utility.yul\":3709:3724   */\n      add\n        /* \"#utility.yul\":3701:3724   */\n      swap1\n      pop\n        /* \"#utility.yul\":3423:3731   */\n      swap2\n      swap1\n      pop\n      jump\t// out\n        /* \"#utility.yul\":3737:3885   */\n    tag_123:\n        /* \"#utility.yul\":3835:3841   */\n      dup3\n        /* \"#utility.yul\":3830:3833   */\n      dup2\n        /* \"#utility.yul\":3825:3828   */\n      dup4\n        /* \"#utility.yul\":3812:3842   */\n      calldatacopy\n        /* \"#utility.yul\":3876:3877   */\n      0x00\n        /* \"#utility.yul\":3867:3873   */\n      dup4\n        /* \"#utility.yul\":3862:3865   */\n      dup4\n        /* \"#utility.yul\":3858:3874   */\n      add\n        /* \"#utility.yul\":3851:3878   */\n      mstore\n        /* \"#utility.yul\":3737:3885   */\n      pop\n      pop\n      pop\n      jump\t// out\n        /* \"#utility.yul\":3891:4316   */\n    tag_124:\n        /* \"#utility.yul\":3969:3974   */\n      0x00\n        /* \"#utility.yul\":3994:4060   */\n      tag_217\n        /* \"#utility.yul\":4010:4059   */\n      tag_218\n        /* \"#utility.yul\":4052:4058   */\n      dup5\n        /* \"#utility.yul\":4010:4059   */\n      tag_122\n      jump\t// in\n    tag_218:\n        /* \"#utility.yul\":3994:4060   */\n      tag_121\n      jump\t// in\n    tag_217:\n        /* \"#utility.yul\":3985:4060   */\n      swap1\n      pop\n        /* \"#utility.yul\":4083:4089   */\n      dup3\n        /* \"#utility.yul\":4076:4081   */\n      dup2\n        /* \"#utility.yul\":4069:4090   */\n      mstore\n        /* \"#utility.yul\":4121:4125   */\n      0x20\n        /* \"#utility.yul\":4114:4119   */\n      dup2\n        /* \"#utility.yul\":4110:4126   */\n      add\n        /* \"#utility.yul\":4159:4162   */\n      dup5\n        /* \"#utility.yul\":4150:4156   */\n      dup5\n        /* \"#utility.yul\":4145:4148   */\n      dup5\n        /* \"#utility.yul\":4141:4157   */\n      add\n        /* \"#utility.yul\":4138:4163   */\n      gt\n        /* \"#utility.yul\":4135:4247   */\n      iszero\n      tag_219\n      jumpi\n        /* \"#utility.yul\":4166:4245   */\n      tag_220\n      tag_119\n      jump\t// in\n    tag_220:\n        /* \"#utility.yul\":4135:4247   */\n    tag_219:\n        /* \"#utility.yul\":4256:4310   */\n      tag_221\n        /* \"#utility.yul\":4303:4309   */\n      dup5\n        /* \"#utility.yul\":4298:4301   */\n      dup3\n        /* \"#utility.yul\":4293:4296   */\n      dup6\n        /* \"#utility.yul\":4256:4310   */\n      tag_123\n      jump\t// in\n    tag_221:\n        /* \"#utility.yul\":3975:4316   */\n      pop\n        /* \"#utility.yul\":3891:4316   */\n      swap4\n      swap3\n      pop\n      pop\n      pop\n      jump\t// out\n        /* \"#utility.yul\":4336:4676   */\n    tag_125:\n        /* \"#utility.yul\":4392:4397   */\n      0x00\n        /* \"#utility.yul\":4441:4444   */\n      dup3\n        /* \"#utility.yul\":4434:4438   */\n      0x1f\n        /* \"#utility.yul\":4426:4432   */\n      dup4\n        /* \"#utility.yul\":4422:4439   */\n      add\n        /* \"#utility.yul\":4418:4445   */\n      slt\n        /* \"#utility.yul\":4408:4530   */\n      tag_223\n      jumpi\n        /* \"#utility.yul\":4449:4528   */\n      tag_224\n      tag_118\n      jump\t// in\n    tag_224:\n        /* \"#utility.yul\":4408:4530   */\n    tag_223:\n        /* \"#utility.yul\":4566:4572   */\n      dup2\n        /* \"#utility.yul\":4553:4573   */\n      calldataload\n        /* \"#utility.yul\":4591:4670   */\n      tag_225\n        /* \"#utility.yul\":4666:4669   */\n      dup5\n        /* \"#utility.yul\":4658:4664   */\n      dup3\n        /* \"#utility.yul\":4651:4655   */\n      0x20\n        /* \"#utility.yul\":4643:4649   */\n      dup7\n        /* \"#utility.yul\":4639:4656   */\n      add\n        /* \"#utility.yul\":4591:4670   */\n      tag_124\n      jump\t// in\n    tag_225:\n        /* \"#utility.yul\":4582:4670   */\n      swap2\n      pop\n        /* \"#utility.yul\":4398:4676   */\n      pop\n        /* \"#utility.yul\":4336:4676   */\n      swap3\n      swap2\n      pop\n      pop\n      jump\t// out\n        /* \"#utility.yul\":4682:5191   */\n    tag_20:\n        /* \"#utility.yul\":4751:4757   */\n      0x00\n        /* \"#utility.yul\":4800:4802   */\n      0x20\n        /* \"#utility.yul\":4788:4797   */\n      dup3\n        /* \"#utility.yul\":4779:4786   */\n      dup5\n        /* \"#utility.yul\":4775:4798   */\n      sub\n        /* \"#utility.yul\":4771:4803   */\n      slt\n        /* \"#utility.yul\":4768:4887   */\n      iszero\n      tag_227\n      jumpi\n        /* \"#utility.yul\":4806:4885   */\n      tag_228\n      tag_106\n      jump\t// in\n    tag_228:\n        /* \"#utility.yul\":4768:4887   */\n    tag_227:\n        /* \"#utility.yul\":4954:4955   */\n      0x00\n        /* \"#utility.yul\":4943:4952   */\n      dup3\n        /* \"#utility.yul\":4939:4956   */\n      add\n        /* \"#utility.yul\":4926:4957   */\n      calldataload\n        /* \"#utility.yul\":4984:5002   */\n      0xffffffffffffffff\n        /* \"#utility.yul\":4976:4982   */\n      dup2\n        /* \"#utility.yul\":4973:5003   */\n      gt\n        /* \"#utility.yul\":4970:5087   */\n      iszero\n      tag_229\n      jumpi\n        /* \"#utility.yul\":5006:5085   */\n      tag_230\n      tag_107\n      jump\t// in\n    tag_230:\n        /* \"#utility.yul\":4970:5087   */\n    tag_229:\n        /* \"#utility.yul\":5111:5174   */\n      tag_231\n        /* \"#utility.yul\":5166:5173   */\n      dup5\n        /* \"#utility.yul\":5157:5163   */\n      dup3\n        /* \"#utility.yul\":5146:5155   */\n      dup6\n        /* \"#utility.yul\":5142:5164   */\n      add\n        /* \"#utility.yul\":5111:5174   */\n      tag_125\n      jump\t// in\n    tag_231:\n        /* \"#utility.yul\":5101:5174   */\n      swap2\n      pop\n        /* \"#utility.yul\":4897:5184   */\n      pop\n        /* \"#utility.yul\":4682:5191   */\n      swap3\n      swap2\n      pop\n      pop\n      jump\t// out\n        /* \"#utility.yul\":5197:5315   */\n    tag_126:\n        /* \"#utility.yul\":5284:5308   */\n      tag_233\n        /* \"#utility.yul\":5302:5307   */\n      dup2\n        /* \"#utility.yul\":5284:5308   */\n      tag_108\n      jump\t// in\n    tag_233:\n        /* \"#utility.yul\":5279:5282   */\n      dup3\n        /* \"#utility.yul\":5272:5309   */\n      mstore\n        /* \"#utility.yul\":5197:5315   */\n      pop\n      pop\n      jump\t// out\n        /* \"#utility.yul\":5321:5543   */\n    tag_23:\n        /* \"#utility.yul\":5414:5418   */\n      0x00\n        /* \"#utility.yul\":5452:5454   */\n      0x20\n        /* \"#utility.yul\":5441:5450   */\n      dup3\n        /* \"#utility.yul\":5437:5455   */\n      add\n        /* \"#utility.yul\":5429:5455   */\n      swap1\n      pop\n        /* \"#utility.yul\":5465:5536   */\n      tag_235\n        /* \"#utility.yul\":5533:5534   */\n      0x00\n        /* \"#utility.yul\":5522:5531   */\n      dup4\n        /* \"#utility.yul\":5518:5535   */\n      add\n        /* \"#utility.yul\":5509:5515   */\n      dup5\n        /* \"#utility.yul\":5465:5536   */\n      tag_126\n      jump\t// in\n    tag_235:\n        /* \"#utility.yul\":5321:5543   */\n      swap3\n      swap2\n      pop\n      pop\n      jump\t// out\n        /* \"#utility.yul\":5549:5675   */\n    tag_127:\n        /* \"#utility.yul\":5586:5593   */\n      0x00\n        /* \"#utility.yul\":5626:5668   */\n      0xffffffffffffffffffffffffffffffffffffffff\n        /* \"#utility.yul\":5619:5624   */\n      dup3\n        /* \"#utility.yul\":5615:5669   */\n      and\n        /* \"#utility.yul\":5604:5669   */\n      swap1\n      pop\n        /* \"#utility.yul\":5549:5675   */\n      swap2\n      swap1\n      pop\n      jump\t// out\n        /* \"#utility.yul\":5681:5777   */\n    tag_128:\n        /* \"#utility.yul\":5718:5725   */\n      0x00\n        /* \"#utility.yul\":5747:5771   */\n      tag_238\n        /* \"#utility.yul\":5765:5770   */\n      dup3\n        /* \"#utility.yul\":5747:5771   */\n      tag_127\n      jump\t// in\n    tag_238:\n        /* \"#utility.yul\":5736:5771   */\n      swap1\n      pop\n        /* \"#utility.yul\":5681:5777   */\n      swap2\n      swap1\n      pop\n      jump\t// out\n        /* \"#utility.yul\":5783:5905   */\n    tag_129:\n        /* \"#utility.yul\":5856:5880   */\n      tag_240\n        /* \"#utility.yul\":5874:5879   */\n      dup2\n        /* \"#utility.yul\":5856:5880   */\n      tag_128\n      jump\t// in\n    tag_240:\n        /* \"#utility.yul\":5849:5854   */\n      dup2\n        /* \"#utility.yul\":5846:5881   */\n      eq\n        /* \"#utility.yul\":5836:5899   */\n      tag_241\n      jumpi\n        /* \"#utility.yul\":5895:5896   */\n      0x00\n        /* \"#utility.yul\":5892:5893   */\n      dup1\n        /* \"#utility.yul\":5885:5897   */\n      revert\n        /* \"#utility.yul\":5836:5899   */\n    tag_241:\n        /* \"#utility.yul\":5783:5905   */\n      pop\n      jump\t// out\n        /* \"#utility.yul\":5911:6050   */\n    tag_130:\n        /* \"#utility.yul\":5957:5962   */\n      0x00\n        /* \"#utility.yul\":5995:6001   */\n      dup2\n        /* \"#utility.yul\":5982:6002   */\n      calldataload\n        /* \"#utility.yul\":5973:6002   */\n      swap1\n      pop\n        /* \"#utility.yul\":6011:6044   */\n      tag_243\n        /* \"#utility.yul\":6038:6043   */\n      dup2\n        /* \"#utility.yul\":6011:6044   */\n      tag_129\n      jump\t// in\n    tag_243:\n        /* \"#utility.yul\":5911:6050   */\n      swap3\n      swap2\n      pop\n      pop\n      jump\t// out\n        /* \"#utility.yul\":6056:6530   */\n    tag_26:\n        /* \"#utility.yul\":6124:6130   */\n      0x00\n        /* \"#utility.yul\":6132:6138   */\n      dup1\n        /* \"#utility.yul\":6181:6183   */\n      0x40\n        /* \"#utility.yul\":6169:6178   */\n      dup4\n        /* \"#utility.yul\":6160:6167   */\n      dup6\n        /* \"#utility.yul\":6156:6179   */\n      sub\n        /* \"#utility.yul\":6152:6184   */\n      slt\n        /* \"#utility.yul\":6149:6268   */\n      iszero\n      tag_245\n      jumpi\n        /* \"#utility.yul\":6187:6266   */\n      tag_246\n      tag_106\n      jump\t// in\n    tag_246:\n        /* \"#utility.yul\":6149:6268   */\n    tag_245:\n        /* \"#utility.yul\":6307:6308   */\n      0x00\n        /* \"#utility.yul\":6332:6385   */\n      tag_247\n        /* \"#utility.yul\":6377:6384   */\n      dup6\n        /* \"#utility.yul\":6368:6374   */\n      dup3\n        /* \"#utility.yul\":6357:6366   */\n      dup7\n        /* \"#utility.yul\":6353:6375   */\n      add\n        /* \"#utility.yul\":6332:6385   */\n      tag_130\n      jump\t// in\n    tag_247:\n        /* \"#utility.yul\":6322:6385   */\n      swap3\n      pop\n        /* \"#utility.yul\":6278:6395   */\n      pop\n        /* \"#utility.yul\":6434:6436   */\n      0x20\n        /* \"#utility.yul\":6460:6513   */\n      tag_248\n        /* \"#utility.yul\":6505:6512   */\n      dup6\n        /* \"#utility.yul\":6496:6502   */\n      dup3\n        /* \"#utility.yul\":6485:6494   */\n      dup7\n        /* \"#utility.yul\":6481:6503   */\n      add\n        /* \"#utility.yul\":6460:6513   */\n      tag_110\n      jump\t// in\n    tag_248:\n        /* \"#utility.yul\":6450:6513   */\n      swap2\n      pop\n        /* \"#utility.yul\":6405:6523   */\n      pop\n        /* \"#utility.yul\":6056:6530   */\n      swap3\n      pop\n      swap3\n      swap1\n      pop\n      jump\t// out\n        /* \"#utility.yul\":6536:6650   */\n    tag_131:\n        /* \"#utility.yul\":6603:6609   */\n      0x00\n        /* \"#utility.yul\":6637:6642   */\n      dup2\n        /* \"#utility.yul\":6631:6643   */\n      mload\n        /* \"#utility.yul\":6621:6643   */\n      swap1\n      pop\n        /* \"#utility.yul\":6536:6650   */\n      swap2\n      swap1\n      pop\n      jump\t// out\n        /* \"#utility.yul\":6656:6840   */\n    tag_132:\n        /* \"#utility.yul\":6755:6766   */\n      0x00\n        /* \"#utility.yul\":6789:6795   */\n      dup3\n        /* \"#utility.yul\":6784:6787   */\n      dup3\n        /* \"#utility.yul\":6777:6796   */\n      mstore\n        /* \"#utility.yul\":6829:6833   */\n      0x20\n        /* \"#utility.yul\":6824:6827   */\n      dup3\n        /* \"#utility.yul\":6820:6834   */\n      add\n        /* \"#utility.yul\":6805:6834   */\n      swap1\n      pop\n        /* \"#utility.yul\":6656:6840   */\n      swap3\n      swap2\n      pop\n      pop\n      jump\t// out\n        /* \"#utility.yul\":6846:6978   */\n    tag_133:\n        /* \"#utility.yul\":6913:6917   */\n      0x00\n        /* \"#utility.yul\":6936:6939   */\n      dup2\n        /* \"#utility.yul\":6928:6939   */\n      swap1\n      pop\n        /* \"#utility.yul\":6966:6970   */\n      0x20\n        /* \"#utility.yul\":6961:6964   */\n      dup3\n        /* \"#utility.yul\":6957:6971   */\n      add\n        /* \"#utility.yul\":6949:6971   */\n      swap1\n      pop\n        /* \"#utility.yul\":6846:6978   */\n      swap2\n      swap1\n      pop\n      jump\t// out\n        /* \"#utility.yul\":6984:7092   */\n    tag_134:\n        /* \"#utility.yul\":7061:7085   */\n      tag_253\n        /* \"#utility.yul\":7079:7084   */\n      dup2\n        /* \"#utility.yul\":7061:7085   */\n      tag_108\n      jump\t// in\n    tag_253:\n        /* \"#utility.yul\":7056:7059   */\n      dup3\n        /* \"#utility.yul\":7049:7086   */\n      mstore\n        /* \"#utility.yul\":6984:7092   */\n      pop\n      pop\n      jump\t// out\n        /* \"#utility.yul\":7098:7277   */\n    tag_135:\n        /* \"#utility.yul\":7167:7177   */\n      0x00\n        /* \"#utility.yul\":7188:7234   */\n      tag_255\n        /* \"#utility.yul\":7230:7233   */\n      dup4\n        /* \"#utility.yul\":7222:7228   */\n      dup4\n        /* \"#utility.yul\":7188:7234   */\n      tag_134\n      jump\t// in\n    tag_255:\n        /* \"#utility.yul\":7266:7270   */\n      0x20\n        /* \"#utility.yul\":7261:7264   */\n      dup4\n        /* \"#utility.yul\":7257:7271   */\n      add\n        /* \"#utility.yul\":7243:7271   */\n      swap1\n      pop\n        /* \"#utility.yul\":7098:7277   */\n      swap3\n      swap2\n      pop\n      pop\n      jump\t// out\n        /* \"#utility.yul\":7283:7396   */\n    tag_136:\n        /* \"#utility.yul\":7353:7357   */\n      0x00\n        /* \"#utility.yul\":7385:7389   */\n      0x20\n        /* \"#utility.yul\":7380:7383   */\n      dup3\n        /* \"#utility.yul\":7376:7390   */\n      add\n        /* \"#utility.yul\":7368:7390   */\n      swap1\n      pop\n        /* \"#utility.yul\":7283:7396   */\n      swap2\n      swap1\n      pop\n      jump\t// out\n        /* \"#utility.yul\":7432:8164   */\n    tag_137:\n        /* \"#utility.yul\":7551:7554   */\n      0x00\n        /* \"#utility.yul\":7580:7634   */\n      tag_258\n        /* \"#utility.yul\":7628:7633   */\n      dup3\n        /* \"#utility.yul\":7580:7634   */\n      tag_131\n      jump\t// in\n    tag_258:\n        /* \"#utility.yul\":7650:7736   */\n      tag_259\n        /* \"#utility.yul\":7729:7735   */\n      dup2\n        /* \"#utility.yul\":7724:7727   */\n      dup6\n        /* \"#utility.yul\":7650:7736   */\n      tag_132\n      jump\t// in\n    tag_259:\n        /* \"#utility.yul\":7643:7736   */\n      swap4\n      pop\n        /* \"#utility.yul\":7760:7816   */\n      tag_260\n        /* \"#utility.yul\":7810:7815   */\n      dup4\n        /* \"#utility.yul\":7760:7816   */\n      tag_133\n      jump\t// in\n    tag_260:\n        /* \"#utility.yul\":7839:7846   */\n      dup1\n        /* \"#utility.yul\":7870:7871   */\n      0x00\n        /* \"#utility.yul\":7855:8139   */\n    tag_261:\n        /* \"#utility.yul\":7880:7886   */\n      dup4\n        /* \"#utility.yul\":7877:7878   */\n      dup2\n        /* \"#utility.yul\":7874:7887   */\n      lt\n        /* \"#utility.yul\":7855:8139   */\n      iszero\n      tag_263\n      jumpi\n        /* \"#utility.yul\":7956:7962   */\n      dup2\n        /* \"#utility.yul\":7950:7963   */\n      mload\n        /* \"#utility.yul\":7983:8046   */\n      tag_264\n        /* \"#utility.yul\":8042:8045   */\n      dup9\n        /* \"#utility.yul\":8027:8040   */\n      dup3\n        /* \"#utility.yul\":7983:8046   */\n      tag_135\n      jump\t// in\n    tag_264:\n        /* \"#utility.yul\":7976:8046   */\n      swap8\n      pop\n        /* \"#utility.yul\":8069:8129   */\n      tag_265\n        /* \"#utility.yul\":8122:8128   */\n      dup4\n        /* \"#utility.yul\":8069:8129   */\n      tag_136\n      jump\t// in\n    tag_265:\n        /* \"#utility.yul\":8059:8129   */\n      swap3\n      pop\n        /* \"#utility.yul\":7915:8139   */\n      pop\n        /* \"#utility.yul\":7902:7903   */\n      0x01\n        /* \"#utility.yul\":7899:7900   */\n      dup2\n        /* \"#utility.yul\":7895:7904   */\n      add\n        /* \"#utility.yul\":7890:7904   */\n      swap1\n      pop\n        /* \"#utility.yul\":7855:8139   */\n      jump(tag_261)\n    tag_263:\n        /* \"#utility.yul\":7859:7873   */\n      pop\n        /* \"#utility.yul\":8155:8158   */\n      dup6\n        /* \"#utility.yul\":8148:8158   */\n      swap4\n      pop\n        /* \"#utility.yul\":7556:8164   */\n      pop\n      pop\n      pop\n        /* \"#utility.yul\":7432:8164   */\n      swap3\n      swap2\n      pop\n      pop\n      jump\t// out\n        /* \"#utility.yul\":8170:8294   */\n    tag_138:\n        /* \"#utility.yul\":8247:8253   */\n      0x00\n        /* \"#utility.yul\":8281:8286   */\n      dup2\n        /* \"#utility.yul\":8275:8287   */\n      mload\n        /* \"#utility.yul\":8265:8287   */\n      swap1\n      pop\n        /* \"#utility.yul\":8170:8294   */\n      swap2\n      swap1\n      pop\n      jump\t// out\n        /* \"#utility.yul\":8300:8494   */\n    tag_139:\n        /* \"#utility.yul\":8409:8420   */\n      0x00\n        /* \"#utility.yul\":8443:8449   */\n      dup3\n        /* \"#utility.yul\":8438:8441   */\n      dup3\n        /* \"#utility.yul\":8431:8450   */\n      mstore\n        /* \"#utility.yul\":8483:8487   */\n      0x20\n        /* \"#utility.yul\":8478:8481   */\n      dup3\n        /* \"#utility.yul\":8474:8488   */\n      add\n        /* \"#utility.yul\":8459:8488   */\n      swap1\n      pop\n        /* \"#utility.yul\":8300:8494   */\n      swap3\n      swap2\n      pop\n      pop\n      jump\t// out\n        /* \"#utility.yul\":8500:8642   */\n    tag_140:\n        /* \"#utility.yul\":8577:8581   */\n      0x00\n        /* \"#utility.yul\":8600:8603   */\n      dup2\n        /* \"#utility.yul\":8592:8603   */\n      swap1\n      pop\n        /* \"#utility.yul\":8630:8634   */\n      0x20\n        /* \"#utility.yul\":8625:8628   */\n      dup3\n        /* \"#utility.yul\":8621:8635   */\n      add\n        /* \"#utility.yul\":8613:8635   */\n      swap1\n      pop\n        /* \"#utility.yul\":8500:8642   */\n      swap2\n      swap1\n      pop\n      jump\t// out\n        /* \"#utility.yul\":8648:8807   */\n    tag_141:\n        /* \"#utility.yul\":8722:8733   */\n      0x00\n        /* \"#utility.yul\":8756:8762   */\n      dup3\n        /* \"#utility.yul\":8751:8754   */\n      dup3\n        /* \"#utility.yul\":8744:8763   */\n      mstore\n        /* \"#utility.yul\":8796:8800   */\n      0x20\n        /* \"#utility.yul\":8791:8794   */\n      dup3\n        /* \"#utility.yul\":8787:8801   */\n      add\n        /* \"#utility.yul\":8772:8801   */\n      swap1\n      pop\n        /* \"#utility.yul\":8648:8807   */\n      swap3\n      swap2\n      pop\n      pop\n      jump\t// out\n        /* \"#utility.yul\":8813:9170   */\n    tag_142:\n        /* \"#utility.yul\":8891:8894   */\n      0x00\n        /* \"#utility.yul\":8919:8958   */\n      tag_271\n        /* \"#utility.yul\":8952:8957   */\n      dup3\n        /* \"#utility.yul\":8919:8958   */\n      tag_111\n      jump\t// in\n    tag_271:\n        /* \"#utility.yul\":8974:9035   */\n      tag_272\n        /* \"#utility.yul\":9028:9034   */\n      dup2\n        /* \"#utility.yul\":9023:9026   */\n      dup6\n        /* \"#utility.yul\":8974:9035   */\n      tag_141\n      jump\t// in\n    tag_272:\n        /* \"#utility.yul\":8967:9035   */\n      swap4\n      pop\n        /* \"#utility.yul\":9044:9109   */\n      tag_273\n        /* \"#utility.yul\":9102:9108   */\n      dup2\n        /* \"#utility.yul\":9097:9100   */\n      dup6\n        /* \"#utility.yul\":9090:9094   */\n      0x20\n        /* \"#utility.yul\":9083:9088   */\n      dup7\n        /* \"#utility.yul\":9079:9095   */\n      add\n        /* \"#utility.yul\":9044:9109   */\n      tag_113\n      jump\t// in\n    tag_273:\n        /* \"#utility.yul\":9134:9163   */\n      tag_274\n        /* \"#utility.yul\":9156:9162   */\n      dup2\n        /* \"#utility.yul\":9134:9163   */\n      tag_114\n      jump\t// in\n    tag_274:\n        /* \"#utility.yul\":9129:9132   */\n      dup5\n        /* \"#utility.yul\":9125:9164   */\n      add\n        /* \"#utility.yul\":9118:9164   */\n      swap2\n      pop\n        /* \"#utility.yul\":8895:9170   */\n      pop\n        /* \"#utility.yul\":8813:9170   */\n      swap3\n      swap2\n      pop\n      pop\n      jump\t// out\n        /* \"#utility.yul\":9176:9372   */\n    tag_143:\n        /* \"#utility.yul\":9265:9275   */\n      0x00\n        /* \"#utility.yul\":9300:9366   */\n      tag_276\n        /* \"#utility.yul\":9362:9365   */\n      dup4\n        /* \"#utility.yul\":9354:9360   */\n      dup4\n        /* \"#utility.yul\":9300:9366   */\n      tag_142\n      jump\t// in\n    tag_276:\n        /* \"#utility.yul\":9286:9366   */\n      swap1\n      pop\n        /* \"#utility.yul\":9176:9372   */\n      swap3\n      swap2\n      pop\n      pop\n      jump\t// out\n        /* \"#utility.yul\":9378:9501   */\n    tag_144:\n        /* \"#utility.yul\":9458:9462   */\n      0x00\n        /* \"#utility.yul\":9490:9494   */\n      0x20\n        /* \"#utility.yul\":9485:9488   */\n      dup3\n        /* \"#utility.yul\":9481:9495   */\n      add\n        /* \"#utility.yul\":9473:9495   */\n      swap1\n      pop\n        /* \"#utility.yul\":9378:9501   */\n      swap2\n      swap1\n      pop\n      jump\t// out\n        /* \"#utility.yul\":9535:10526   */\n    tag_145:\n        /* \"#utility.yul\":9674:9677   */\n      0x00\n        /* \"#utility.yul\":9703:9767   */\n      tag_279\n        /* \"#utility.yul\":9761:9766   */\n      dup3\n        /* \"#utility.yul\":9703:9767   */\n      tag_138\n      jump\t// in\n    tag_279:\n        /* \"#utility.yul\":9783:9879   */\n      tag_280\n        /* \"#utility.yul\":9872:9878   */\n      dup2\n        /* \"#utility.yul\":9867:9870   */\n      dup6\n        /* \"#utility.yul\":9783:9879   */\n      tag_139\n      jump\t// in\n    tag_280:\n        /* \"#utility.yul\":9776:9879   */\n      swap4\n      pop\n        /* \"#utility.yul\":9905:9908   */\n      dup4\n        /* \"#utility.yul\":9950:9954   */\n      0x20\n        /* \"#utility.yul\":9942:9948   */\n      dup3\n        /* \"#utility.yul\":9938:9955   */\n      mul\n        /* \"#utility.yul\":9933:9936   */\n      dup6\n        /* \"#utility.yul\":9929:9956   */\n      add\n        /* \"#utility.yul\":9980:10046   */\n      tag_281\n        /* \"#utility.yul\":10040:10045   */\n      dup6\n        /* \"#utility.yul\":9980:10046   */\n      tag_140\n      jump\t// in\n    tag_281:\n        /* \"#utility.yul\":10069:10076   */\n      dup1\n        /* \"#utility.yul\":10100:10101   */\n      0x00\n        /* \"#utility.yul\":10085:10481   */\n    tag_282:\n        /* \"#utility.yul\":10110:10116   */\n      dup6\n        /* \"#utility.yul\":10107:10108   */\n      dup2\n        /* \"#utility.yul\":10104:10117   */\n      lt\n        /* \"#utility.yul\":10085:10481   */\n      iszero\n      tag_284\n      jumpi\n        /* \"#utility.yul\":10181:10190   */\n      dup5\n        /* \"#utility.yul\":10175:10179   */\n      dup5\n        /* \"#utility.yul\":10171:10191   */\n      sub\n        /* \"#utility.yul\":10166:10169   */\n      dup10\n        /* \"#utility.yul\":10159:10192   */\n      mstore\n        /* \"#utility.yul\":10232:10238   */\n      dup2\n        /* \"#utility.yul\":10226:10239   */\n      mload\n        /* \"#utility.yul\":10260:10344   */\n      tag_285\n        /* \"#utility.yul\":10339:10343   */\n      dup6\n        /* \"#utility.yul\":10324:10337   */\n      dup3\n        /* \"#utility.yul\":10260:10344   */\n      tag_143\n      jump\t// in\n    tag_285:\n        /* \"#utility.yul\":10252:10344   */\n      swap5\n      pop\n        /* \"#utility.yul\":10367:10437   */\n      tag_286\n        /* \"#utility.yul\":10430:10436   */\n      dup4\n        /* \"#utility.yul\":10367:10437   */\n      tag_144\n      jump\t// in\n    tag_286:\n        /* \"#utility.yul\":10357:10437   */\n      swap3\n      pop\n        /* \"#utility.yul\":10466:10470   */\n      0x20\n        /* \"#utility.yul\":10461:10464   */\n      dup11\n        /* \"#utility.yul\":10457:10471   */\n      add\n        /* \"#utility.yul\":10450:10471   */\n      swap10\n      pop\n        /* \"#utility.yul\":10145:10481   */\n      pop\n        /* \"#utility.yul\":10132:10133   */\n      0x01\n        /* \"#utility.yul\":10129:10130   */\n      dup2\n        /* \"#utility.yul\":10125:10134   */\n      add\n        /* \"#utility.yul\":10120:10134   */\n      swap1\n      pop\n        /* \"#utility.yul\":10085:10481   */\n      jump(tag_282)\n    tag_284:\n        /* \"#utility.yul\":10089:10103   */\n      pop\n        /* \"#utility.yul\":10497:10501   */\n      dup3\n        /* \"#utility.yul\":10490:10501   */\n      swap8\n      pop\n        /* \"#utility.yul\":10517:10520   */\n      dup8\n        /* \"#utility.yul\":10510:10520   */\n      swap6\n      pop\n        /* \"#utility.yul\":9679:10526   */\n      pop\n      pop\n      pop\n      pop\n      pop\n        /* \"#utility.yul\":9535:10526   */\n      swap3\n      swap2\n      pop\n      pop\n      jump\t// out\n        /* \"#utility.yul\":10532:10643   */\n    tag_146:\n        /* \"#utility.yul\":10596:10602   */\n      0x00\n        /* \"#utility.yul\":10630:10635   */\n      dup2\n        /* \"#utility.yul\":10624:10636   */\n      mload\n        /* \"#utility.yul\":10614:10636   */\n      swap1\n      pop\n        /* \"#utility.yul\":10532:10643   */\n      swap2\n      swap1\n      pop\n      jump\t// out\n        /* \"#utility.yul\":10649:10830   */\n    tag_147:\n        /* \"#utility.yul\":10745:10756   */\n      0x00\n        /* \"#utility.yul\":10779:10785   */\n      dup3\n        /* \"#utility.yul\":10774:10777   */\n      dup3\n        /* \"#utility.yul\":10767:10786   */\n      mstore\n        /* \"#utility.yul\":10819:10823   */\n      0x20\n        /* \"#utility.yul\":10814:10817   */\n      dup3\n        /* \"#utility.yul\":10810:10824   */\n      add\n        /* \"#utility.yul\":10795:10824   */\n      swap1\n      pop\n        /* \"#utility.yul\":10649:10830   */\n      swap3\n      swap2\n      pop\n      pop\n      jump\t// out\n        /* \"#utility.yul\":10836:10965   */\n    tag_148:\n        /* \"#utility.yul\":10900:10904   */\n      0x00\n        /* \"#utility.yul\":10923:10926   */\n      dup2\n        /* \"#utility.yul\":10915:10926   */\n      swap1\n      pop\n        /* \"#utility.yul\":10953:10957   */\n      0x20\n        /* \"#utility.yul\":10948:10951   */\n      dup3\n        /* \"#utility.yul\":10944:10958   */\n      add\n        /* \"#utility.yul\":10936:10958   */\n      swap1\n      pop\n        /* \"#utility.yul\":10836:10965   */\n      swap2\n      swap1\n      pop\n      jump\t// out\n        /* \"#utility.yul\":10971:11070   */\n    tag_149:\n        /* \"#utility.yul\":11042:11063   */\n      tag_291\n        /* \"#utility.yul\":11057:11062   */\n      dup2\n        /* \"#utility.yul\":11042:11063   */\n      tag_116\n      jump\t// in\n    tag_291:\n        /* \"#utility.yul\":11037:11040   */\n      dup3\n        /* \"#utility.yul\":11030:11064   */\n      mstore\n        /* \"#utility.yul\":10971:11070   */\n      pop\n      pop\n      jump\t// out\n        /* \"#utility.yul\":11076:11243   */\n    tag_150:\n        /* \"#utility.yul\":11139:11149   */\n      0x00\n        /* \"#utility.yul\":11160:11200   */\n      tag_293\n        /* \"#utility.yul\":11196:11199   */\n      dup4\n        /* \"#utility.yul\":11188:11194   */\n      dup4\n        /* \"#utility.yul\":11160:11200   */\n      tag_149\n      jump\t// in\n    tag_293:\n        /* \"#utility.yul\":11232:11236   */\n      0x20\n        /* \"#utility.yul\":11227:11230   */\n      dup4\n        /* \"#utility.yul\":11223:11237   */\n      add\n        /* \"#utility.yul\":11209:11237   */\n      swap1\n      pop\n        /* \"#utility.yul\":11076:11243   */\n      swap3\n      swap2\n      pop\n      pop\n      jump\t// out\n        /* \"#utility.yul\":11249:11359   */\n    tag_151:\n        /* \"#utility.yul\":11316:11320   */\n      0x00\n        /* \"#utility.yul\":11348:11352   */\n      0x20\n        /* \"#utility.yul\":11343:11346   */\n      dup3\n        /* \"#utility.yul\":11339:11353   */\n      add\n        /* \"#utility.yul\":11331:11353   */\n      swap1\n      pop\n        /* \"#utility.yul\":11249:11359   */\n      swap2\n      swap1\n      pop\n      jump\t// out\n        /* \"#utility.yul\":11389:12097   */\n    tag_152:\n        /* \"#utility.yul\":11502:11505   */\n      0x00\n        /* \"#utility.yul\":11531:11582   */\n      tag_296\n        /* \"#utility.yul\":11576:11581   */\n      dup3\n        /* \"#utility.yul\":11531:11582   */\n      tag_146\n      jump\t// in\n    tag_296:\n        /* \"#utility.yul\":11598:11681   */\n      tag_297\n        /* \"#utility.yul\":11674:11680   */\n      dup2\n        /* \"#utility.yul\":11669:11672   */\n      dup6\n        /* \"#utility.yul\":11598:11681   */\n      tag_147\n      jump\t// in\n    tag_297:\n        /* \"#utility.yul\":11591:11681   */\n      swap4\n      pop\n        /* \"#utility.yul\":11705:11758   */\n      tag_298\n        /* \"#utility.yul\":11752:11757   */\n      dup4\n        /* \"#utility.yul\":11705:11758   */\n      tag_148\n      jump\t// in\n    tag_298:\n        /* \"#utility.yul\":11781:11788   */\n      dup1\n        /* \"#utility.yul\":11812:11813   */\n      0x00\n        /* \"#utility.yul\":11797:12072   */\n    tag_299:\n        /* \"#utility.yul\":11822:11828   */\n      dup4\n        /* \"#utility.yul\":11819:11820   */\n      dup2\n        /* \"#utility.yul\":11816:11829   */\n      lt\n        /* \"#utility.yul\":11797:12072   */\n      iszero\n      tag_301\n      jumpi\n        /* \"#utility.yul\":11898:11904   */\n      dup2\n        /* \"#utility.yul\":11892:11905   */\n      mload\n        /* \"#utility.yul\":11925:11982   */\n      tag_302\n        /* \"#utility.yul\":11978:11981   */\n      dup9\n        /* \"#utility.yul\":11963:11976   */\n      dup3\n        /* \"#utility.yul\":11925:11982   */\n      tag_150\n      jump\t// in\n    tag_302:\n        /* \"#utility.yul\":11918:11982   */\n      swap8\n      pop\n        /* \"#utility.yul\":12005:12062   */\n      tag_303\n        /* \"#utility.yul\":12055:12061   */\n      dup4\n        /* \"#utility.yul\":12005:12062   */\n      tag_151\n      jump\t// in\n    tag_303:\n        /* \"#utility.yul\":11995:12062   */\n      swap3\n      pop\n        /* \"#utility.yul\":11857:12072   */\n      pop\n        /* \"#utility.yul\":11844:11845   */\n      0x01\n        /* \"#utility.yul\":11841:11842   */\n      dup2\n        /* \"#utility.yul\":11837:11846   */\n      add\n        /* \"#utility.yul\":11832:11846   */\n      swap1\n      pop\n        /* \"#utility.yul\":11797:12072   */\n      jump(tag_299)\n    tag_301:\n        /* \"#utility.yul\":11801:11815   */\n      pop\n        /* \"#utility.yul\":12088:12091   */\n      dup6\n        /* \"#utility.yul\":12081:12091   */\n      swap4\n      pop\n        /* \"#utility.yul\":11507:12097   */\n      pop\n      pop\n      pop\n        /* \"#utility.yul\":11389:12097   */\n      swap3\n      swap2\n      pop\n      pop\n      jump\t// out\n        /* \"#utility.yul\":12103:13026   */\n    tag_32:\n        /* \"#utility.yul\":12416:12420   */\n      0x00\n        /* \"#utility.yul\":12454:12456   */\n      0x60\n        /* \"#utility.yul\":12443:12452   */\n      dup3\n        /* \"#utility.yul\":12439:12457   */\n      add\n        /* \"#utility.yul\":12431:12457   */\n      swap1\n      pop\n        /* \"#utility.yul\":12503:12512   */\n      dup2\n        /* \"#utility.yul\":12497:12501   */\n      dup2\n        /* \"#utility.yul\":12493:12513   */\n      sub\n        /* \"#utility.yul\":12489:12490   */\n      0x00\n        /* \"#utility.yul\":12478:12487   */\n      dup4\n        /* \"#utility.yul\":12474:12491   */\n      add\n        /* \"#utility.yul\":12467:12514   */\n      mstore\n        /* \"#utility.yul\":12531:12639   */\n      tag_305\n        /* \"#utility.yul\":12634:12638   */\n      dup2\n        /* \"#utility.yul\":12625:12631   */\n      dup7\n        /* \"#utility.yul\":12531:12639   */\n      tag_137\n      jump\t// in\n    tag_305:\n        /* \"#utility.yul\":12523:12639   */\n      swap1\n      pop\n        /* \"#utility.yul\":12686:12695   */\n      dup2\n        /* \"#utility.yul\":12680:12684   */\n      dup2\n        /* \"#utility.yul\":12676:12696   */\n      sub\n        /* \"#utility.yul\":12671:12673   */\n      0x20\n        /* \"#utility.yul\":12660:12669   */\n      dup4\n        /* \"#utility.yul\":12656:12674   */\n      add\n        /* \"#utility.yul\":12649:12697   */\n      mstore\n        /* \"#utility.yul\":12714:12842   */\n      tag_306\n        /* \"#utility.yul\":12837:12841   */\n      dup2\n        /* \"#utility.yul\":12828:12834   */\n      dup6\n        /* \"#utility.yul\":12714:12842   */\n      tag_145\n      jump\t// in\n    tag_306:\n        /* \"#utility.yul\":12706:12842   */\n      swap1\n      pop\n        /* \"#utility.yul\":12889:12898   */\n      dup2\n        /* \"#utility.yul\":12883:12887   */\n      dup2\n        /* \"#utility.yul\":12879:12899   */\n      sub\n        /* \"#utility.yul\":12874:12876   */\n      0x40\n        /* \"#utility.yul\":12863:12872   */\n      dup4\n        /* \"#utility.yul\":12859:12877   */\n      add\n        /* \"#utility.yul\":12852:12900   */\n      mstore\n        /* \"#utility.yul\":12917:13019   */\n      tag_307\n        /* \"#utility.yul\":13014:13018   */\n      dup2\n        /* \"#utility.yul\":13005:13011   */\n      dup5\n        /* \"#utility.yul\":12917:13019   */\n      tag_152\n      jump\t// in\n    tag_307:\n        /* \"#utility.yul\":12909:13019   */\n      swap1\n      pop\n        /* \"#utility.yul\":12103:13026   */\n      swap5\n      swap4\n      pop\n      pop\n      pop\n      pop\n      jump\t// out\n        /* \"#utility.yul\":13032:13201   */\n    tag_153:\n        /* \"#utility.yul\":13172:13193   */\n      0x5461736b20646f6573206e6f7420657869737400000000000000000000000000\n        /* \"#utility.yul\":13168:13169   */\n      0x00\n        /* \"#utility.yul\":13160:13166   */\n      dup3\n        /* \"#utility.yul\":13156:13170   */\n      add\n        /* \"#utility.yul\":13149:13194   */\n      mstore\n        /* \"#utility.yul\":13032:13201   */\n      pop\n      jump\t// out\n        /* \"#utility.yul\":13207:13573   */\n    tag_154:\n        /* \"#utility.yul\":13349:13352   */\n      0x00\n        /* \"#utility.yul\":13370:13437   */\n      tag_310\n        /* \"#utility.yul\":13434:13436   */\n      0x13\n        /* \"#utility.yul\":13429:13432   */\n      dup4\n        /* \"#utility.yul\":13370:13437   */\n      tag_112\n      jump\t// in\n    tag_310:\n        /* \"#utility.yul\":13363:13437   */\n      swap2\n      pop\n        /* \"#utility.yul\":13446:13539   */\n      tag_311\n        /* \"#utility.yul\":13535:13538   */\n      dup3\n        /* \"#utility.yul\":13446:13539   */\n      tag_153\n      jump\t// in\n    tag_311:\n        /* \"#utility.yul\":13564:13566   */\n      0x20\n        /* \"#utility.yul\":13559:13562   */\n      dup3\n        /* \"#utility.yul\":13555:13567   */\n      add\n        /* \"#utility.yul\":13548:13567   */\n      swap1\n      pop\n        /* \"#utility.yul\":13207:13573   */\n      swap2\n      swap1\n      pop\n      jump\t// out\n        /* \"#utility.yul\":13579:13998   */\n    tag_39:\n        /* \"#utility.yul\":13745:13749   */\n      0x00\n        /* \"#utility.yul\":13783:13785   */\n      0x20\n        /* \"#utility.yul\":13772:13781   */\n      dup3\n        /* \"#utility.yul\":13768:13786   */\n      add\n        /* \"#utility.yul\":13760:13786   */\n      swap1\n      pop\n        /* \"#utility.yul\":13832:13841   */\n      dup2\n        /* \"#utility.yul\":13826:13830   */\n      dup2\n        /* \"#utility.yul\":13822:13842   */\n      sub\n        /* \"#utility.yul\":13818:13819   */\n      0x00\n        /* \"#utility.yul\":13807:13816   */\n      dup4\n        /* \"#utility.yul\":13803:13820   */\n      add\n        /* \"#utility.yul\":13796:13843   */\n      mstore\n        /* \"#utility.yul\":13860:13991   */\n      tag_313\n        /* \"#utility.yul\":13986:13990   */\n      dup2\n        /* \"#utility.yul\":13860:13991   */\n      tag_154\n      jump\t// in\n    tag_313:\n        /* \"#utility.yul\":13852:13991   */\n      swap1\n      pop\n        /* \"#utility.yul\":13579:13998   */\n      swap2\n      swap1\n      pop\n      jump\t// out\n        /* \"#utility.yul\":14004:14184   */\n    tag_42:\n        /* \"#utility.yul\":14052:14129   */\n      0x4e487b7100000000000000000000000000000000000000000000000000000000\n        /* \"#utility.yul\":14049:14050   */\n      0x00\n        /* \"#utility.yul\":14042:14130   */\n      mstore\n        /* \"#utility.yul\":14149:14153   */\n      0x32\n        /* \"#utility.yul\":14146:14147   */\n      0x04\n        /* \"#utility.yul\":14139:14154   */\n      mstore\n        /* \"#utility.yul\":14173:14177   */\n      0x24\n        /* \"#utility.yul\":14170:14171   */\n      0x00\n        /* \"#utility.yul\":14163:14178   */\n      revert\n        /* \"#utility.yul\":14190:14370   */\n    tag_155:\n        /* \"#utility.yul\":14238:14315   */\n      0x4e487b7100000000000000000000000000000000000000000000000000000000\n        /* \"#utility.yul\":14235:14236   */\n      0x00\n        /* \"#utility.yul\":14228:14316   */\n      mstore\n        /* \"#utility.yul\":14335:14339   */\n      0x22\n        /* \"#utility.yul\":14332:14333   */\n      0x04\n        /* \"#utility.yul\":14325:14340   */\n      mstore\n        /* \"#utility.yul\":14359:14363   */\n      0x24\n        /* \"#utility.yul\":14356:14357   */\n      0x00\n        /* \"#utility.yul\":14349:14364   */\n      revert\n        /* \"#utility.yul\":14376:14696   */\n    tag_52:\n        /* \"#utility.yul\":14420:14426   */\n      0x00\n        /* \"#utility.yul\":14457:14458   */\n      0x02\n        /* \"#utility.yul\":14451:14455   */\n      dup3\n        /* \"#utility.yul\":14447:14459   */\n      div\n        /* \"#utility.yul\":14437:14459   */\n      swap1\n      pop\n        /* \"#utility.yul\":14504:14505   */\n      0x01\n        /* \"#utility.yul\":14498:14502   */\n      dup3\n        /* \"#utility.yul\":14494:14506   */\n      and\n        /* \"#utility.yul\":14525:14543   */\n      dup1\n        /* \"#utility.yul\":14515:14596   */\n      tag_317\n      jumpi\n        /* \"#utility.yul\":14581:14585   */\n      0x7f\n        /* \"#utility.yul\":14573:14579   */\n      dup3\n        /* \"#utility.yul\":14569:14586   */\n      and\n        /* \"#utility.yul\":14559:14586   */\n      swap2\n      pop\n        /* \"#utility.yul\":14515:14596   */\n    tag_317:\n        /* \"#utility.yul\":14643:14645   */\n      0x20\n        /* \"#utility.yul\":14635:14641   */\n      dup3\n        /* \"#utility.yul\":14632:14646   */\n      lt\n        /* \"#utility.yul\":14612:14630   */\n      dup2\n        /* \"#utility.yul\":14609:14647   */\n      sub\n        /* \"#utility.yul\":14606:14690   */\n      tag_318\n      jumpi\n        /* \"#utility.yul\":14662:14680   */\n      tag_319\n      tag_155\n      jump\t// in\n    tag_319:\n        /* \"#utility.yul\":14606:14690   */\n    tag_318:\n        /* \"#utility.yul\":14427:14696   */\n      pop\n        /* \"#utility.yul\":14376:14696   */\n      swap2\n      swap1\n      pop\n      jump\t// out\n        /* \"#utility.yul\":14702:14843   */\n    tag_156:\n        /* \"#utility.yul\":14751:14755   */\n      0x00\n        /* \"#utility.yul\":14774:14777   */\n      dup2\n        /* \"#utility.yul\":14766:14777   */\n      swap1\n      pop\n        /* \"#utility.yul\":14797:14800   */\n      dup2\n        /* \"#utility.yul\":14794:14795   */\n      0x00\n        /* \"#utility.yul\":14787:14801   */\n      mstore\n        /* \"#utility.yul\":14831:14835   */\n      0x20\n        /* \"#utility.yul\":14828:14829   */\n      0x00\n        /* \"#utility.yul\":14818:14836   */\n      keccak256\n        /* \"#utility.yul\":14810:14836   */\n      swap1\n      pop\n        /* \"#utility.yul\":14702:14843   */\n      swap2\n      swap1\n      pop\n      jump\t// out\n        /* \"#utility.yul\":14849:14942   */\n    tag_157:\n        /* \"#utility.yul\":14886:14892   */\n      0x00\n        /* \"#utility.yul\":14933:14935   */\n      0x20\n        /* \"#utility.yul\":14928:14930   */\n      0x1f\n        /* \"#utility.yul\":14921:14926   */\n      dup4\n        /* \"#utility.yul\":14917:14931   */\n      add\n        /* \"#utility.yul\":14913:14936   */\n      div\n        /* \"#utility.yul\":14903:14936   */\n      swap1\n      pop\n        /* \"#utility.yul\":14849:14942   */\n      swap2\n      swap1\n      pop\n      jump\t// out\n        /* \"#utility.yul\":14948:15055   */\n    tag_158:\n        /* \"#utility.yul\":14992:15000   */\n      0x00\n        /* \"#utility.yul\":15042:15047   */\n      dup3\n        /* \"#utility.yul\":15036:15040   */\n      dup3\n        /* \"#utility.yul\":15032:15048   */\n      shl\n        /* \"#utility.yul\":15011:15048   */\n      swap1\n      pop\n        /* \"#utility.yul\":14948:15055   */\n      swap3\n      swap2\n      pop\n      pop\n      jump\t// out\n        /* \"#utility.yul\":15061:15454   */\n    tag_159:\n        /* \"#utility.yul\":15130:15136   */\n      0x00\n        /* \"#utility.yul\":15180:15181   */\n      0x08\n        /* \"#utility.yul\":15168:15178   */\n      dup4\n        /* \"#utility.yul\":15164:15182   */\n      mul\n        /* \"#utility.yul\":15203:15300   */\n      tag_324\n        /* \"#utility.yul\":15233:15299   */\n      0xffffffffffffffffffffffffffffffffffffffffffffffffffffffffffffffff\n        /* \"#utility.yul\":15222:15231   */\n      dup3\n        /* \"#utility.yul\":15203:15300   */\n      tag_158\n      jump\t// in\n    tag_324:\n        /* \"#utility.yul\":15321:15360   */\n      tag_325\n        /* \"#utility.yul\":15351:15359   */\n      dup7\n        /* \"#utility.yul\":15340:15349   */\n      dup4\n        /* \"#utility.yul\":15321:15360   */\n      tag_158\n      jump\t// in\n    tag_325:\n        /* \"#utility.yul\":15309:15360   */\n      swap6\n      pop\n        /* \"#utility.yul\":15393:15397   */\n      dup1\n        /* \"#utility.yul\":15389:15398   */\n      not\n        /* \"#utility.yul\":15382:15387   */\n      dup5\n        /* \"#utility.yul\":15378:15399   */\n      and\n        /* \"#utility.yul\":15369:15399   */\n      swap4\n      pop\n        /* \"#utility.yul\":15442:15446   */\n      dup1\n        /* \"#utility.yul\":15432:15440   */\n      dup7\n        /* \"#utility.yul\":15428:15447   */\n      and\n        /* \"#utility.yul\":15421:15426   */\n      dup5\n        /* \"#utility.yul\":15418:15448   */\n      or\n        /* \"#utility.yul\":15408:15448   */\n      swap3\n      pop\n        /* \"#utility.yul\":15137:15454   */\n      pop\n      pop\n        /* \"#utility.yul\":15061:15454   */\n      swap4\n      swap3\n      pop\n      pop\n      pop\n      jump\t// out\n        /* \"#utility.yul\":15460:15520   */\n    tag_160:\n        /* \"#utility.yul\":15488:15491   */\n      0x00\n        /* \"#utility.yul\":15509:15514   */\n      dup2\n        /* \"#utility.yul\":15502:15514   */\n      swap1\n      pop\n        /* \"#utility.yul\":15460:15520   */\n      swap2\n      swap1\n      pop\n      jump\t// out\n        /* \"#utility.yul\":15526:15668   */\n    tag_161:\n        /* \"#utility.yul\":15576:15585   */\n      0x00\n        /* \"#utility.yul\":15609:15662   */\n      tag_328\n        /* \"#utility.yul\":15627:15661   */\n      tag_329\n        /* \"#utility.yul\":15636:15660   */\n      tag_330\n        /* \"#utility.yul\":15654:15659   */\n      dup5\n        /* \"#utility.yul\":15636:15660   */\n      tag_108\n      jump\t// in\n    tag_330:\n        /* \"#utility.yul\":15627:15661   */\n      tag_160\n      jump\t// in\n    tag_329:\n        /* \"#utility.yul\":15609:15662   */\n      tag_108\n      jump\t// in\n    tag_328:\n        /* \"#utility.yul\":15596:15662   */\n      swap1\n      pop\n        /* \"#utility.yul\":15526:15668   */\n      swap2\n      swap1\n      pop\n      jump\t// out\n        /* \"#utility.yul\":15674:15749   */\n    tag_162:\n        /* \"#utility.yul\":15717:15720   */\n      0x00\n        /* \"#utility.yul\":15738:15743   */\n      dup2\n        /* \"#utility.yul\":15731:15743   */\n      swap1\n      pop\n        /* \"#utility.yul\":15674:15749   */\n      swap2\n      swap1\n      pop\n      jump\t// out\n        /* \"#utility.yul\":15755:16024   */\n    tag_163:\n        /* \"#utility.yul\":15865:15904   */\n      tag_333\n        /* \"#utility.yul\":15896:15903   */\n      dup4\n        /* \"#utility.yul\":15865:15904   */\n      tag_161\n      jump\t// in\n    tag_333:\n        /* \"#utility.yul\":15926:16017   */\n      tag_334\n        /* \"#utility.yul\":15975:16016   */\n      tag_335\n        /* \"#utility.yul\":15999:16015   */\n      dup3\n        /* \"#utility.yul\":15975:16016   */\n      tag_162\n      jump\t// in\n    tag_335:\n        /* \"#utility.yul\":15967:15973   */\n      dup5\n        /* \"#utility.yul\":15960:15964   */\n      dup5\n        /* \"#utility.yul\":15954:15965   */\n      sload\n        /* \"#utility.yul\":15926:16017   */\n      tag_159\n      jump\t// in\n    tag_334:\n        /* \"#utility.yul\":15920:15924   */\n      dup3\n        /* \"#utility.yul\":15913:16018   */\n      sstore\n        /* \"#utility.yul\":15831:16024   */\n      pop\n        /* \"#utility.yul\":15755:16024   */\n      pop\n      pop\n      pop\n      jump\t// out\n        /* \"#utility.yul\":16030:16103   */\n    tag_164:\n        /* \"#utility.yul\":16075:16078   */\n      0x00\n        /* \"#utility.yul\":16030:16103   */\n      swap1\n      jump\t// out\n        /* \"#utility.yul\":16109:16298   */\n    tag_165:\n        /* \"#utility.yul\":16186:16218   */\n      tag_338\n      tag_164\n      jump\t// in\n    tag_338:\n        /* \"#utility.yul\":16227:16292   */\n      tag_339\n        /* \"#utility.yul\":16285:16291   */\n      dup2\n        /* \"#utility.yul\":16277:16283   */\n      dup5\n        /* \"#utility.yul\":16271:16275   */\n      dup5\n        /* \"#utility.yul\":16227:16292   */\n      tag_163\n      jump\t// in\n    tag_339:\n        /* \"#utility.yul\":16162:16298   */\n      pop\n        /* \"#utility.yul\":16109:16298   */\n      pop\n      pop\n      jump\t// out\n        /* \"#utility.yul\":16304:16490   */\n    tag_166:\n        /* \"#utility.yul\":16364:16484   */\n    tag_341:\n        /* \"#utility.yul\":16381:16384   */\n      dup2\n        /* \"#utility.yul\":16374:16379   */\n      dup2\n        /* \"#utility.yul\":16371:16385   */\n      lt\n        /* \"#utility.yul\":16364:16484   */\n      iszero\n      tag_343\n      jumpi\n        /* \"#utility.yul\":16435:16474   */\n      tag_344\n        /* \"#utility.yul\":16472:16473   */\n      0x00\n        /* \"#utility.yul\":16465:16470   */\n      dup3\n        /* \"#utility.yul\":16435:16474   */\n      tag_165\n      jump\t// in\n    tag_344:\n        /* \"#utility.yul\":16408:16409   */\n      0x01\n        /* \"#utility.yul\":16401:16406   */\n      dup2\n        /* \"#utility.yul\":16397:16410   */\n      add\n        /* \"#utility.yul\":16388:16410   */\n      swap1\n      pop\n        /* \"#utility.yul\":16364:16484   */\n      jump(tag_341)\n    tag_343:\n        /* \"#utility.yul\":16304:16490   */\n      pop\n      pop\n      jump\t// out\n        /* \"#utility.yul\":16496:17039   */\n    tag_167:\n        /* \"#utility.yul\":16597:16599   */\n      0x1f\n        /* \"#utility.yul\":16592:16595   */\n      dup3\n        /* \"#utility.yul\":16589:16600   */\n      gt\n        /* \"#utility.yul\":16586:17032   */\n      iszero\n      tag_346\n      jumpi\n        /* \"#utility.yul\":16631:16669   */\n      tag_347\n        /* \"#utility.yul\":16663:16668   */\n      dup2\n        /* \"#utility.yul\":16631:16669   */\n      tag_156\n      jump\t// in\n    tag_347:\n        /* \"#utility.yul\":16715:16744   */\n      tag_348\n        /* \"#utility.yul\":16733:16743   */\n      dup5\n        /* \"#utility.yul\":16715:16744   */\n      tag_157\n      jump\t// in\n    tag_348:\n        /* \"#utility.yul\":16705:16713   */\n      dup2\n        /* \"#utility.yul\":16701:16745   */\n      add\n        /* \"#utility.yul\":16898:16900   */\n      0x20\n        /* \"#utility.yul\":16886:16896   */\n      dup6\n        /* \"#utility.yul\":16883:16901   */\n      lt\n        /* \"#utility.yul\":16880:16929   */\n      iszero\n      tag_349\n      jumpi\n        /* \"#utility.yul\":16919:16927   */\n      dup2\n        /* \"#utility.yul\":16904:16927   */\n      swap1\n      pop\n        /* \"#utility.yul\":16880:16929   */\n    tag_349:\n        /* \"#utility.yul\":16942:17022   */\n      tag_350\n        /* \"#utility.yul\":16998:17020   */\n      tag_351\n        /* \"#utility.yul\":17016:17019   */\n      dup6\n        /* \"#utility.yul\":16998:17020   */\n      tag_157\n      jump\t// in\n    tag_351:\n        /* \"#utility.yul\":16988:16996   */\n      dup4\n        /* \"#utility.yul\":16984:17021   */\n      add\n        /* \"#utility.yul\":16971:16982   */\n      dup3\n        /* \"#utility.yul\":16942:17022   */\n      tag_166\n      jump\t// in\n    tag_350:\n        /* \"#utility.yul\":16601:17032   */\n      pop\n      pop\n        /* \"#utility.yul\":16586:17032   */\n    tag_346:\n        /* \"#utility.yul\":16496:17039   */\n      pop\n      pop\n      pop\n      jump\t// out\n        /* \"#utility.yul\":17045:17162   */\n    tag_168:\n        /* \"#utility.yul\":17099:17107   */\n      0x00\n        /* \"#utility.yul\":17149:17154   */\n      dup3\n        /* \"#utility.yul\":17143:17147   */\n      dup3\n        /* \"#utility.yul\":17139:17155   */\n      shr\n        /* \"#utility.yul\":17118:17155   */\n      swap1\n      pop\n        /* \"#utility.yul\":17045:17162   */\n      swap3\n      swap2\n      pop\n      pop\n      jump\t// out\n        /* \"#utility.yul\":17168:17337   */\n    tag_169:\n        /* \"#utility.yul\":17212:17218   */\n      0x00\n        /* \"#utility.yul\":17245:17296   */\n      tag_354\n        /* \"#utility.yul\":17293:17294   */\n      0x00\n        /* \"#utility.yul\":17289:17295   */\n      not\n        /* \"#utility.yul\":17281:17286   */\n      dup5\n        /* \"#utility.yul\":17278:17279   */\n      0x08\n        /* \"#utility.yul\":17274:17287   */\n      mul\n        /* \"#utility.yul\":17245:17296   */\n      tag_168\n      jump\t// in\n    tag_354:\n        /* \"#utility.yul\":17241:17297   */\n      not\n        /* \"#utility.yul\":17326:17330   */\n      dup1\n        /* \"#utility.yul\":17320:17324   */\n      dup4\n        /* \"#utility.yul\":17316:17331   */\n      and\n        /* \"#utility.yul\":17306:17331   */\n      swap2\n      pop\n        /* \"#utility.yul\":17219:17337   */\n      pop\n        /* \"#utility.yul\":17168:17337   */\n      swap3\n      swap2\n      pop\n      pop\n      jump\t// out\n        /* \"#utility.yul\":17342:17637   */\n    tag_170:\n        /* \"#utility.yul\":17418:17422   */\n      0x00\n        /* \"#utility.yul\":17564:17593   */\n      tag_356\n        /* \"#utility.yul\":17589:17592   */\n      dup4\n        /* \"#utility.yul\":17583:17587   */\n      dup4\n        /* \"#utility.yul\":17564:17593   */\n      tag_169\n      jump\t// in\n    tag_356:\n        /* \"#utility.yul\":17556:17593   */\n      swap2\n      pop\n        /* \"#utility.yul\":17626:17629   */\n      dup3\n        /* \"#utility.yul\":17623:17624   */\n      0x02\n        /* \"#utility.yul\":17619:17630   */\n      mul\n        /* \"#utility.yul\":17613:17617   */\n      dup3\n        /* \"#utility.yul\":17610:17631   */\n      or\n        /* \"#utility.yul\":17602:17631   */\n      swap1\n      pop\n        /* \"#utility.yul\":17342:17637   */\n      swap3\n      swap2\n      pop\n      pop\n      jump\t// out\n        /* \"#utility.yul\":17642:19037   */\n    tag_60:\n        /* \"#utility.yul\":17759:17796   */\n      tag_358\n        /* \"#utility.yul\":17792:17795   */\n      dup3\n        /* \"#utility.yul\":17759:17796   */\n      tag_111\n      jump\t// in\n    tag_358:\n        /* \"#utility.yul\":17861:17879   */\n      0xffffffffffffffff\n        /* \"#utility.yul\":17853:17859   */\n      dup2\n        /* \"#utility.yul\":17850:17880   */\n      gt\n        /* \"#utility.yul\":17847:17903   */\n      iszero\n      tag_359\n      jumpi\n        /* \"#utility.yul\":17883:17901   */\n      tag_360\n      tag_75\n      jump\t// in\n    tag_360:\n        /* \"#utility.yul\":17847:17903   */\n    tag_359:\n        /* \"#utility.yul\":17927:17965   */\n      tag_361\n        /* \"#utility.yul\":17959:17963   */\n      dup3\n        /* \"#utility.yul\":17953:17964   */\n      sload\n        /* \"#utility.yul\":17927:17965   */\n      tag_52\n      jump\t// in\n    tag_361:\n        /* \"#utility.yul\":18012:18079   */\n      tag_362\n        /* \"#utility.yul\":18072:18078   */\n      dup3\n        /* \"#utility.yul\":18064:18070   */\n      dup3\n        /* \"#utility.yul\":18058:18062   */\n      dup6\n        /* \"#utility.yul\":18012:18079   */\n      tag_167\n      jump\t// in\n    tag_362:\n        /* \"#utility.yul\":18106:18107   */\n      0x00\n        /* \"#utility.yul\":18130:18134   */\n      0x20\n        /* \"#utility.yul\":18117:18134   */\n      swap1\n      pop\n        /* \"#utility.yul\":18162:18164   */\n      0x1f\n        /* \"#utility.yul\":18154:18160   */\n      dup4\n        /* \"#utility.yul\":18151:18165   */\n      gt\n        /* \"#utility.yul\":18179:18180   */\n      0x01\n        /* \"#utility.yul\":18174:18792   */\n      dup2\n      eq\n      tag_364\n      jumpi\n        /* \"#utility.yul\":18836:18837   */\n      0x00\n        /* \"#utility.yul\":18853:18859   */\n      dup5\n        /* \"#utility.yul\":18850:18927   */\n      iszero\n      tag_365\n      jumpi\n        /* \"#utility.yul\":18902:18911   */\n      dup3\n        /* \"#utility.yul\":18897:18900   */\n      dup8\n        /* \"#utility.yul\":18893:18912   */\n      add\n        /* \"#utility.yul\":18887:18913   */\n      mload\n        /* \"#utility.yul\":18878:18913   */\n      swap1\n      pop\n        /* \"#utility.yul\":18850:18927   */\n    tag_365:\n        /* \"#utility.yul\":18953:19020   */\n      tag_366\n        /* \"#utility.yul\":19013:19019   */\n      dup6\n        /* \"#utility.yul\":19006:19011   */\n      dup3\n        /* \"#utility.yul\":18953:19020   */\n      tag_170\n      jump\t// in\n    tag_366:\n        /* \"#utility.yul\":18947:18951   */\n      dup7\n        /* \"#utility.yul\":18940:19021   */\n      sstore\n        /* \"#utility.yul\":18809:19031   */\n      pop\n        /* \"#utility.yul\":18144:19031   */\n      jump(tag_363)\n        /* \"#utility.yul\":18174:18792   */\n    tag_364:\n        /* \"#utility.yul\":18226:18230   */\n      0x1f\n        /* \"#utility.yul\":18222:18231   */\n      not\n        /* \"#utility.yul\":18214:18220   */\n      dup5\n        /* \"#utility.yul\":18210:18232   */\n      and\n        /* \"#utility.yul\":18260:18297   */\n      tag_367\n        /* \"#utility.yul\":18292:18296   */\n      dup7\n        /* \"#utility.yul\":18260:18297   */\n      tag_156\n      jump\t// in\n    tag_367:\n        /* \"#utility.yul\":18319:18320   */\n      0x00\n        /* \"#utility.yul\":18333:18541   */\n    tag_368:\n        /* \"#utility.yul\":18347:18354   */\n      dup3\n        /* \"#utility.yul\":18344:18345   */\n      dup2\n        /* \"#utility.yul\":18341:18355   */\n      lt\n        /* \"#utility.yul\":18333:18541   */\n      iszero\n      tag_370\n      jumpi\n        /* \"#utility.yul\":18426:18435   */\n      dup5\n        /* \"#utility.yul\":18421:18424   */\n      dup10\n        /* \"#utility.yul\":18417:18436   */\n      add\n        /* \"#utility.yul\":18411:18437   */\n      mload\n        /* \"#utility.yul\":18403:18409   */\n      dup3\n        /* \"#utility.yul\":18396:18438   */\n      sstore\n        /* \"#utility.yul\":18477:18478   */\n      0x01\n        /* \"#utility.yul\":18469:18475   */\n      dup3\n        /* \"#utility.yul\":18465:18479   */\n      add\n        /* \"#utility.yul\":18455:18479   */\n      swap2\n      pop\n        /* \"#utility.yul\":18524:18526   */\n      0x20\n        /* \"#utility.yul\":18513:18522   */\n      dup6\n        /* \"#utility.yul\":18509:18527   */\n      add\n        /* \"#utility.yul\":18496:18527   */\n      swap5\n      pop\n        /* \"#utility.yul\":18370:18374   */\n      0x20\n        /* \"#utility.yul\":18367:18368   */\n      dup2\n        /* \"#utility.yul\":18363:18375   */\n      add\n        /* \"#utility.yul\":18358:18375   */\n      swap1\n      pop\n        /* \"#utility.yul\":18333:18541   */\n      jump(tag_368)\n    tag_370:\n        /* \"#utility.yul\":18569:18575   */\n      dup7\n        /* \"#utility.yul\":18560:18567   */\n      dup4\n        /* \"#utility.yul\":18557:18576   */\n      lt\n        /* \"#utility.yul\":18554:18733   */\n      iszero\n      tag_371\n      jumpi\n        /* \"#utility.yul\":18627:18636   */\n      dup5\n        /* \"#utility.yul\":18622:18625   */\n      dup10\n        /* \"#utility.yul\":18618:18637   */\n      add\n        /* \"#utility.yul\":18612:18638   */\n      mload\n        /* \"#utility.yul\":18670:18718   */\n      tag_372\n        /* \"#utility.yul\":18712:18716   */\n      0x1f\n        /* \"#utility.yul\":18704:18710   */\n      dup10\n        /* \"#utility.yul\":18700:18717   */\n      and\n        /* \"#utility.yul\":18689:18698   */\n      dup3\n        /* \"#utility.yul\":18670:18718   */\n      tag_169\n      jump\t// in\n    tag_372:\n        /* \"#utility.yul\":18662:18668   */\n      dup4\n        /* \"#utility.yul\":18655:18719   */\n      sstore\n        /* \"#utility.yul\":18577:18733   */\n      pop\n        /* \"#utility.yul\":18554:18733   */\n    tag_371:\n        /* \"#utility.yul\":18779:18780   */\n      0x01\n        /* \"#utility.yul\":18775:18776   */\n      0x02\n        /* \"#utility.yul\":18767:18773   */\n      dup9\n        /* \"#utility.yul\":18763:18777   */\n      mul\n        /* \"#utility.yul\":18759:18781   */\n      add\n        /* \"#utility.yul\":18753:18757   */\n      dup9\n        /* \"#utility.yul\":18746:18782   */\n      sstore\n        /* \"#utility.yul\":18181:18792   */\n      pop\n      pop\n      pop\n        /* \"#utility.yul\":18144:19031   */\n    tag_363:\n      pop\n        /* \"#utility.yul\":17734:19037   */\n      pop\n      pop\n      pop\n        /* \"#utility.yul\":17642:19037   */\n      pop\n      pop\n      jump\t// out\n        /* \"#utility.yul\":19043:19223   */\n    tag_171:\n        /* \"#utility.yul\":19091:19168   */\n      0x4e487b7100000000000000000000000000000000000000000000000000000000\n        /* \"#utility.yul\":19088:19089   */\n      0x00\n        /* \"#utility.yul\":19081:19169   */\n      mstore\n        /* \"#utility.yul\":19188:19192   */\n      0x11\n        /* \"#utility.yul\":19185:19186   */\n      0x04\n        /* \"#utility.yul\":19178:19193   */\n      mstore\n        /* \"#utility.yul\":19212:19216   */\n      0x24\n        /* \"#utility.yul\":19209:19210   */\n      0x00\n        /* \"#utility.yul\":19202:19217   */\n      revert\n        /* \"#utility.yul\":19229:19423   */\n    tag_62:\n        /* \"#utility.yul\":19269:19273   */\n      0x00\n        /* \"#utility.yul\":19289:19309   */\n      tag_375\n        /* \"#utility.yul\":19307:19308   */\n      dup3\n        /* \"#utility.yul\":19289:19309   */\n      tag_108\n      jump\t// in\n    tag_375:\n        /* \"#utility.yul\":19284:19309   */\n      swap2\n      pop\n        /* \"#utility.yul\":19323:19343   */\n      tag_376\n        /* \"#utility.yul\":19341:19342   */\n      dup4\n        /* \"#utility.yul\":19323:19343   */\n      tag_108\n      jump\t// in\n    tag_376:\n        /* \"#utility.yul\":19318:19343   */\n      swap3\n      pop\n        /* \"#utility.yul\":19367:19368   */\n      dup3\n        /* \"#utility.yul\":19364:19365   */\n      dup3\n        /* \"#utility.yul\":19360:19369   */\n      sub\n        /* \"#utility.yul\":19352:19369   */\n      swap1\n      pop\n        /* \"#utility.yul\":19391:19392   */\n      dup2\n        /* \"#utility.yul\":19385:19389   */\n      dup2\n        /* \"#utility.yul\":19382:19393   */\n      gt\n        /* \"#utility.yul\":19379:19416   */\n      iszero\n      tag_377\n      jumpi\n        /* \"#utility.yul\":19396:19414   */\n      tag_378\n      tag_171\n      jump\t// in\n    tag_378:\n        /* \"#utility.yul\":19379:19416   */\n    tag_377:\n        /* \"#utility.yul\":19229:19423   */\n      swap3\n      swap2\n      pop\n      pop\n      jump\t// out\n        /* \"#utility.yul\":19429:19852   */\n    tag_64:\n        /* \"#utility.yul\":19570:19574   */\n      0x00\n        /* \"#utility.yul\":19608:19610   */\n      0x40\n        /* \"#utility.yul\":19597:19606   */\n      dup3\n        /* \"#utility.yul\":19593:19611   */\n      add\n        /* \"#utility.yul\":19585:19611   */\n      swap1\n      pop\n        /* \"#utility.yul\":19621:19692   */\n      tag_380\n        /* \"#utility.yul\":19689:19690   */\n      0x00\n        /* \"#utility.yul\":19678:19687   */\n      dup4\n        /* \"#utility.yul\":19674:19691   */\n      add\n        /* \"#utility.yul\":19665:19671   */\n      dup6\n        /* \"#utility.yul\":19621:19692   */\n      tag_126\n      jump\t// in\n    tag_380:\n        /* \"#utility.yul\":19739:19748   */\n      dup2\n        /* \"#utility.yul\":19733:19737   */\n      dup2\n        /* \"#utility.yul\":19729:19749   */\n      sub\n        /* \"#utility.yul\":19724:19726   */\n      0x20\n        /* \"#utility.yul\":19713:19722   */\n      dup4\n        /* \"#utility.yul\":19709:19727   */\n      add\n        /* \"#utility.yul\":19702:19750   */\n      mstore\n        /* \"#utility.yul\":19767:19845   */\n      tag_381\n        /* \"#utility.yul\":19840:19844   */\n      dup2\n        /* \"#utility.yul\":19831:19837   */\n      dup5\n        /* \"#utility.yul\":19767:19845   */\n      tag_115\n      jump\t// in\n    tag_381:\n        /* \"#utility.yul\":19759:19845   */\n      swap1\n      pop\n        /* \"#utility.yul\":19429:19852   */\n      swap4\n      swap3\n      pop\n      pop\n      pop\n      jump\t// out\n\n    auxdata: 0xa2646970667358221220391cdcb7a73bcbc979ea8bf778b7d7254870d16ca2559050a6b8c9ce45c5176864736f6c634300081a0033\n}\n",
				"bytecode": {
					"linkReferences": {},
					"object": "6080604052348015600e575f80fd5b506113e88061001c5f395ff3fe608060405234801561000f575f80fd5b506004361061005f575f3560e01c80620b2bda146100635780631d65e77e1461007f57806367238562146100b05780637149d2e4146100e0578063779900b414610111578063c17a340e14610131575b5f80fd5b61007d600480360381019061007891906109f5565b61014f565b005b610099600480360381019061009491906109f5565b610296565b6040516100a7929190610aaa565b60405180910390f35b6100ca60048036038101906100c59190610c04565b61043e565b6040516100d79190610c5a565b60405180910390f35b6100fa60048036038101906100f59190610ccd565b610595565b604051610108929190610aaa565b60405180910390f35b610119610660565b60405161012893929190610f7c565b60405180910390f35b61013961096b565b6040516101469190610c5a565b60405180910390f35b5f803373ffffffffffffffffffffffffffffffffffffffff1673ffffffffffffffffffffffffffffffffffffffff1681526020019081526020015f208054905081106101d0576040517f08c379a00000000000000000000000000000000000000000000000000000000081526004016101c790611010565b60405180910390fd5b60015f803373ffffffffffffffffffffffffffffffffffffffff1673ffffffffffffffffffffffffffffffffffffffff1681526020019081526020015f2082815481106102205761021f61102e565b5b905f5260205f2090600202016001015f6101000a81548160ff0219169083151502179055503373ffffffffffffffffffffffffffffffffffffffff167ff684d89bb0f42287bf32838774e4b7f8a60c11804b3c6d1791fa55f3067926438260405161028b9190610c5a565b60405180910390a250565b60605f805f3373ffffffffffffffffffffffffffffffffffffffff1673ffffffffffffffffffffffffffffffffffffffff1681526020019081526020015f2080549050831061031a576040517f08c379a000000000000000000000000000000000000000000000000000000000815260040161031190611010565b60405180910390fd5b5f805f3373ffffffffffffffffffffffffffffffffffffffff1673ffffffffffffffffffffffffffffffffffffffff1681526020019081526020015f2084815481106103695761036861102e565b5b905f5260205f2090600202016040518060400160405290815f8201805461038f90611088565b80601f01602080910402602001604051908101604052809291908181526020018280546103bb90611088565b80156104065780601f106103dd57610100808354040283529160200191610406565b820191905f5260205f20905b8154815290600101906020018083116103e957829003601f168201915b50505050508152602001600182015f9054906101000a900460ff1615151515815250509050805f015181602001519250925050915091565b5f805f3373ffffffffffffffffffffffffffffffffffffffff1673ffffffffffffffffffffffffffffffffffffffff1681526020019081526020015f2060405180604001604052808481526020015f1515815250908060018154018082558091505060019003905f5260205f2090600202015f909190919091505f820151815f0190816104cb9190611255565b506020820151816001015f6101000a81548160ff02191690831515021790555050505f60015f803373ffffffffffffffffffffffffffffffffffffffff1673ffffffffffffffffffffffffffffffffffffffff1681526020019081526020015f208054905061053a9190611351565b90503373ffffffffffffffffffffffffffffffffffffffff167f793f49aab3b9e0d3125d745773b78ac45236f2beeed7c6296e60911e17a0de428285604051610584929190611384565b60405180910390a280915050919050565b5f602052815f5260405f2081815481106105ad575f80fd5b905f5260205f2090600202015f9150915050805f0180546105cd90611088565b80601f01602080910402602001604051908101604052809291908181526020018280546105f990611088565b80156106445780601f1061061b57610100808354040283529160200191610644565b820191905f5260205f20905b81548152906001019060200180831161062757829003601f168201915b505050505090806001015f9054906101000a900460ff16905082565b60608060605f805f3373ffffffffffffffffffffffffffffffffffffffff1673ffffffffffffffffffffffffffffffffffffffff1681526020019081526020015f208054905090505f8167ffffffffffffffff8111156106c3576106c2610ae0565b5b6040519080825280602002602001820160405280156106f15781602001602082028036833780820191505090505b5090505f8267ffffffffffffffff81111561070f5761070e610ae0565b5b60405190808252806020026020018201604052801561074257816020015b606081526020019060019003908161072d5790505b5090505f8367ffffffffffffffff8111156107605761075f610ae0565b5b60405190808252806020026020018201604052801561078e5781602001602082028036833780820191505090505b5090505f5b8481101561095857808482815181106107af576107ae61102e565b5b6020026020010181815250505f803373ffffffffffffffffffffffffffffffffffffffff1673ffffffffffffffffffffffffffffffffffffffff1681526020019081526020015f2081815481106108095761080861102e565b5b905f5260205f2090600202015f01805461082290611088565b80601f016020809104026020016040519081016040528092919081815260200182805461084e90611088565b80156108995780601f1061087057610100808354040283529160200191610899565b820191905f5260205f20905b81548152906001019060200180831161087c57829003601f168201915b50505050508382815181106108b1576108b061102e565b5b60200260200101819052505f803373ffffffffffffffffffffffffffffffffffffffff1673ffffffffffffffffffffffffffffffffffffffff1681526020019081526020015f20818154811061090a5761090961102e565b5b905f5260205f2090600202016001015f9054906101000a900460ff168282815181106109395761093861102e565b5b6020026020010190151590811515815250508080600101915050610793565b5082828296509650965050505050909192565b5f805f3373ffffffffffffffffffffffffffffffffffffffff1673ffffffffffffffffffffffffffffffffffffffff1681526020019081526020015f2080549050905090565b5f604051905090565b5f80fd5b5f80fd5b5f819050919050565b6109d4816109c2565b81146109de575f80fd5b50565b5f813590506109ef816109cb565b92915050565b5f60208284031215610a0a57610a096109ba565b5b5f610a17848285016109e1565b91505092915050565b5f81519050919050565b5f82825260208201905092915050565b8281835e5f83830152505050565b5f601f19601f8301169050919050565b5f610a6282610a20565b610a6c8185610a2a565b9350610a7c818560208601610a3a565b610a8581610a48565b840191505092915050565b5f8115159050919050565b610aa481610a90565b82525050565b5f6040820190508181035f830152610ac28185610a58565b9050610ad16020830184610a9b565b9392505050565b5f80fd5b5f80fd5b7f4e487b71000000000000000000000000000000000000000000000000000000005f52604160045260245ffd5b610b1682610a48565b810181811067ffffffffffffffff82111715610b3557610b34610ae0565b5b80604052505050565b5f610b476109b1565b9050610b538282610b0d565b919050565b5f67ffffffffffffffff821115610b7257610b71610ae0565b5b610b7b82610a48565b9050602081019050919050565b828183375f83830152505050565b5f610ba8610ba384610b58565b610b3e565b905082815260208101848484011115610bc457610bc3610adc565b5b610bcf848285610b88565b509392505050565b5f82601f830112610beb57610bea610ad8565b5b8135610bfb848260208601610b96565b91505092915050565b5f60208284031215610c1957610c186109ba565b5b5f82013567ffffffffffffffff811115610c3657610c356109be565b5b610c4284828501610bd7565b91505092915050565b610c54816109c2565b82525050565b5f602082019050610c6d5f830184610c4b565b92915050565b5f73ffffffffffffffffffffffffffffffffffffffff82169050919050565b5f610c9c82610c73565b9050919050565b610cac81610c92565b8114610cb6575f80fd5b50565b5f81359050610cc781610ca3565b92915050565b5f8060408385031215610ce357610ce26109ba565b5b5f610cf085828601610cb9565b9250506020610d01858286016109e1565b9150509250929050565b5f81519050919050565b5f82825260208201905092915050565b5f819050602082019050919050565b610d3d816109c2565b82525050565b5f610d4e8383610d34565b60208301905092915050565b5f602082019050919050565b5f610d7082610d0b565b610d7a8185610d15565b9350610d8583610d25565b805f5b83811015610db5578151610d9c8882610d43565b9750610da783610d5a565b925050600181019050610d88565b5085935050505092915050565b5f81519050919050565b5f82825260208201905092915050565b5f819050602082019050919050565b5f82825260208201905092915050565b5f610e0582610a20565b610e0f8185610deb565b9350610e1f818560208601610a3a565b610e2881610a48565b840191505092915050565b5f610e3e8383610dfb565b905092915050565b5f602082019050919050565b5f610e5c82610dc2565b610e668185610dcc565b935083602082028501610e7885610ddc565b805f5b85811015610eb35784840389528151610e948582610e33565b9450610e9f83610e46565b925060208a01995050600181019050610e7b565b50829750879550505050505092915050565b5f81519050919050565b5f82825260208201905092915050565b5f819050602082019050919050565b610ef781610a90565b82525050565b5f610f088383610eee565b60208301905092915050565b5f602082019050919050565b5f610f2a82610ec5565b610f348185610ecf565b9350610f3f83610edf565b805f5b83811015610f6f578151610f568882610efd565b9750610f6183610f14565b925050600181019050610f42565b5085935050505092915050565b5f6060820190508181035f830152610f948186610d66565b90508181036020830152610fa88185610e52565b90508181036040830152610fbc8184610f20565b9050949350505050565b7f5461736b20646f6573206e6f74206578697374000000000000000000000000005f82015250565b5f610ffa601383610a2a565b915061100582610fc6565b602082019050919050565b5f6020820190508181035f83015261102781610fee565b9050919050565b7f4e487b71000000000000000000000000000000000000000000000000000000005f52603260045260245ffd5b7f4e487b71000000000000000000000000000000000000000000000000000000005f52602260045260245ffd5b5f600282049050600182168061109f57607f821691505b6020821081036110b2576110b161105b565b5b50919050565b5f819050815f5260205f209050919050565b5f6020601f8301049050919050565b5f82821b905092915050565b5f600883026111147fffffffffffffffffffffffffffffffffffffffffffffffffffffffffffffffff826110d9565b61111e86836110d9565b95508019841693508086168417925050509392505050565b5f819050919050565b5f61115961115461114f846109c2565b611136565b6109c2565b9050919050565b5f819050919050565b6111728361113f565b61118661117e82611160565b8484546110e5565b825550505050565b5f90565b61119a61118e565b6111a5818484611169565b505050565b5b818110156111c8576111bd5f82611192565b6001810190506111ab565b5050565b601f82111561120d576111de816110b8565b6111e7846110ca565b810160208510156111f6578190505b61120a611202856110ca565b8301826111aa565b50505b505050565b5f82821c905092915050565b5f61122d5f1984600802611212565b1980831691505092915050565b5f611245838361121e565b9150826002028217905092915050565b61125e82610a20565b67ffffffffffffffff81111561127757611276610ae0565b5b6112818254611088565b61128c8282856111cc565b5f60209050601f8311600181146112bd575f84156112ab578287015190505b6112b5858261123a565b86555061131c565b601f1984166112cb866110b8565b5f5b828110156112f2578489015182556001820191506020850194506020810190506112cd565b8683101561130f578489015161130b601f89168261121e565b8355505b6001600288020188555050505b505050505050565b7f4e487b71000000000000000000000000000000000000000000000000000000005f52601160045260245ffd5b5f61135b826109c2565b9150611366836109c2565b925082820390508181111561137e5761137d611324565b5b92915050565b5f6040820190506113975f830185610c4b565b81810360208301526113a98184610a58565b9050939250505056fea2646970667358221220391cdcb7a73bcbc979ea8bf778b7d7254870d16ca2559050a6b8c9ce45c5176864736f6c634300081a0033",
					"opcodes": "PUSH1 0x80 PUSH1 0x40 MSTORE CALLVALUE DUP1 ISZERO PUSH1 0xE JUMPI PUSH0 DUP1 REVERT JUMPDEST POP PUSH2 0x13E8 DUP1 PUSH2 0x1C PUSH0 CODECOPY PUSH0 RETURN INVALID PUSH1 0x80 PUSH1 0x40 MSTORE CALLVALUE DUP1 ISZERO PUSH2 0xF JUMPI PUSH0 DUP1 REVERT JUMPDEST POP PUSH1 0x4 CALLDATASIZE LT PUSH2 0x5F JUMPI PUSH0 CALLDATALOAD PUSH1 0xE0 SHR DUP1 PUSH3 0xB2BDA EQ PUSH2 0x63 JUMPI DUP1 PUSH4 0x1D65E77E EQ PUSH2 0x7F JUMPI DUP1 PUSH4 0x67238562 EQ PUSH2 0xB0 JUMPI DUP1 PUSH4 0x7149D2E4 EQ PUSH2 0xE0 JUMPI DUP1 PUSH4 0x779900B4 EQ PUSH2 0x111 JUMPI DUP1 PUSH4 0xC17A340E EQ PUSH2 0x131 JUMPI JUMPDEST PUSH0 DUP1 REVERT JUMPDEST PUSH2 0x7D PUSH1 0x4 DUP1 CALLDATASIZE SUB DUP2 ADD SWAP1 PUSH2 0x78 SWAP2 SWAP1 PUSH2 0x9F5 JUMP JUMPDEST PUSH2 0x14F JUMP JUMPDEST STOP JUMPDEST PUSH2 0x99 PUSH1 0x4 DUP1 CALLDATASIZE SUB DUP2 ADD SWAP1 PUSH2 0x94 SWAP2 SWAP1 PUSH2 0x9F5 JUMP JUMPDEST PUSH2 0x296 JUMP JUMPDEST PUSH1 0x40 MLOAD PUSH2 0xA7 SWAP3 SWAP2 SWAP1 PUSH2 0xAAA JUMP JUMPDEST PUSH1 0x40 MLOAD DUP1 SWAP2 SUB SWAP1 RETURN JUMPDEST PUSH2 0xCA PUSH1 0x4 DUP1 CALLDATASIZE SUB DUP2 ADD SWAP1 PUSH2 0xC5 SWAP2 SWAP1 PUSH2 0xC04 JUMP JUMPDEST PUSH2 0x43E JUMP JUMPDEST PUSH1 0x40 MLOAD PUSH2 0xD7 SWAP2 SWAP1 PUSH2 0xC5A JUMP JUMPDEST PUSH1 0x40 MLOAD DUP1 SWAP2 SUB SWAP1 RETURN JUMPDEST PUSH2 0xFA PUSH1 0x4 DUP1 CALLDATASIZE SUB DUP2 ADD SWAP1 PUSH2 0xF5 SWAP2 SWAP1 PUSH2 0xCCD JUMP JUMPDEST PUSH2 0x595 JUMP JUMPDEST PUSH1 0x40 MLOAD PUSH2 0x108 SWAP3 SWAP2 SWAP1 PUSH2 0xAAA JUMP JUMPDEST PUSH1 0x40 MLOAD DUP1 SWAP2 SUB SWAP1 RETURN JUMPDEST PUSH2 0x119 PUSH2 0x660 JUMP JUMPDEST PUSH1 0x40 MLOAD PUSH2 0x128 SWAP4 SWAP3 SWAP2 SWAP1 PUSH2 0xF7C JUMP JUMPDEST PUSH1 0x40 MLOAD DUP1 SWAP2 SUB SWAP1 RETURN JUMPDEST PUSH2 0x139 PUSH2 0x96B JUMP JUMPDEST PUSH1 0x40 MLOAD PUSH2 0x146 SWAP2 SWAP1 PUSH2 0xC5A JUMP JUMPDEST PUSH1 0x40 MLOAD DUP1 SWAP2 SUB SWAP1 RETURN JUMPDEST PUSH0 DUP1 CALLER PUSH20 0xFFFFFFFFFFFFFFFFFFFFFFFFFFFFFFFFFFFFFFFF AND PUSH20 0xFFFFFFFFFFFFFFFFFFFFFFFFFFFFFFFFFFFFFFFF AND DUP2 MSTORE PUSH1 0x20 ADD SWAP1 DUP2 MSTORE PUSH1 0x20 ADD PUSH0 KECCAK256 DUP1 SLOAD SWAP1 POP DUP2 LT PUSH2 0x1D0 JUMPI PUSH1 0x40 MLOAD PUSH32 0x8C379A000000000000000000000000000000000000000000000000000000000 DUP2 MSTORE PUSH1 0x4 ADD PUSH2 0x1C7 SWAP1 PUSH2 0x1010 JUMP JUMPDEST PUSH1 0x40 MLOAD DUP1 SWAP2 SUB SWAP1 REVERT JUMPDEST PUSH1 0x1 PUSH0 DUP1 CALLER PUSH20 0xFFFFFFFFFFFFFFFFFFFFFFFFFFFFFFFFFFFFFFFF AND PUSH20 0xFFFFFFFFFFFFFFFFFFFFFFFFFFFFFFFFFFFFFFFF AND DUP2 MSTORE PUSH1 0x20 ADD SWAP1 DUP2 MSTORE PUSH1 0x20 ADD PUSH0 KECCAK256 DUP3 DUP2 SLOAD DUP2 LT PUSH2 0x220 JUMPI PUSH2 0x21F PUSH2 0x102E JUMP JUMPDEST JUMPDEST SWAP1 PUSH0 MSTORE PUSH1 0x20 PUSH0 KECCAK256 SWAP1 PUSH1 0x2 MUL ADD PUSH1 0x1 ADD PUSH0 PUSH2 0x100 EXP DUP2 SLOAD DUP2 PUSH1 0xFF MUL NOT AND SWAP1 DUP4 ISZERO ISZERO MUL OR SWAP1 SSTORE POP CALLER PUSH20 0xFFFFFFFFFFFFFFFFFFFFFFFFFFFFFFFFFFFFFFFF AND PUSH32 0xF684D89BB0F42287BF32838774E4B7F8A60C11804B3C6D1791FA55F306792643 DUP3 PUSH1 0x40 MLOAD PUSH2 0x28B SWAP2 SWAP1 PUSH2 0xC5A JUMP JUMPDEST PUSH1 0x40 MLOAD DUP1 SWAP2 SUB SWAP1 LOG2 POP JUMP JUMPDEST PUSH1 0x60 PUSH0 DUP1 PUSH0 CALLER PUSH20 0xFFFFFFFFFFFFFFFFFFFFFFFFFFFFFFFFFFFFFFFF AND PUSH20 0xFFFFFFFFFFFFFFFFFFFFFFFFFFFFFFFFFFFFFFFF AND DUP2 MSTORE PUSH1 0x20 ADD SWAP1 DUP2 MSTORE PUSH1 0x20 ADD PUSH0 KECCAK256 DUP1 SLOAD SWAP1 POP DUP4 LT PUSH2 0x31A JUMPI PUSH1 0x40 MLOAD PUSH32 0x8C379A000000000000000000000000000000000000000000000000000000000 DUP2 MSTORE PUSH1 0x4 ADD PUSH2 0x311 SWAP1 PUSH2 0x1010 JUMP JUMPDEST PUSH1 0x40 MLOAD DUP1 SWAP2 SUB SWAP1 REVERT JUMPDEST PUSH0 DUP1 PUSH0 CALLER PUSH20 0xFFFFFFFFFFFFFFFFFFFFFFFFFFFFFFFFFFFFFFFF AND PUSH20 0xFFFFFFFFFFFFFFFFFFFFFFFFFFFFFFFFFFFFFFFF AND DUP2 MSTORE PUSH1 0x20 ADD SWAP1 DUP2 MSTORE PUSH1 0x20 ADD PUSH0 KECCAK256 DUP5 DUP2 SLOAD DUP2 LT PUSH2 0x369 JUMPI PUSH2 0x368 PUSH2 0x102E JUMP JUMPDEST JUMPDEST SWAP1 PUSH0 MSTORE PUSH1 0x20 PUSH0 KECCAK256 SWAP1 PUSH1 0x2 MUL ADD PUSH1 0x40 MLOAD DUP1 PUSH1 0x40 ADD PUSH1 0x40 MSTORE SWAP1 DUP2 PUSH0 DUP3 ADD DUP1 SLOAD PUSH2 0x38F SWAP1 PUSH2 0x1088 JUMP JUMPDEST DUP1 PUSH1 0x1F ADD PUSH1 0x20 DUP1 SWAP2 DIV MUL PUSH1 0x20 ADD PUSH1 0x40 MLOAD SWAP1 DUP2 ADD PUSH1 0x40 MSTORE DUP1 SWAP3 SWAP2 SWAP1 DUP2 DUP2 MSTORE PUSH1 0x20 ADD DUP3 DUP1 SLOAD PUSH2 0x3BB SWAP1 PUSH2 0x1088 JUMP JUMPDEST DUP1 ISZERO PUSH2 0x406 JUMPI DUP1 PUSH1 0x1F LT PUSH2 0x3DD JUMPI PUSH2 0x100 DUP1 DUP4 SLOAD DIV MUL DUP4 MSTORE SWAP2 PUSH1 0x20 ADD SWAP2 PUSH2 0x406 JUMP JUMPDEST DUP3 ADD SWAP2 SWAP1 PUSH0 MSTORE PUSH1 0x20 PUSH0 KECCAK256 SWAP1 JUMPDEST DUP2 SLOAD DUP2 MSTORE SWAP1 PUSH1 0x1 ADD SWAP1 PUSH1 0x20 ADD DUP1 DUP4 GT PUSH2 0x3E9 JUMPI DUP3 SWAP1 SUB PUSH1 0x1F AND DUP3 ADD SWAP2 JUMPDEST POP POP POP POP POP DUP2 MSTORE PUSH1 0x20 ADD PUSH1 0x1 DUP3 ADD PUSH0 SWAP1 SLOAD SWAP1 PUSH2 0x100 EXP SWAP1 DIV PUSH1 0xFF AND ISZERO ISZERO ISZERO ISZERO DUP2 MSTORE POP POP SWAP1 POP DUP1 PUSH0 ADD MLOAD DUP2 PUSH1 0x20 ADD MLOAD SWAP3 POP SWAP3 POP POP SWAP2 POP SWAP2 JUMP JUMPDEST PUSH0 DUP1 PUSH0 CALLER PUSH20 0xFFFFFFFFFFFFFFFFFFFFFFFFFFFFFFFFFFFFFFFF AND PUSH20 0xFFFFFFFFFFFFFFFFFFFFFFFFFFFFFFFFFFFFFFFF AND DUP2 MSTORE PUSH1 0x20 ADD SWAP1 DUP2 MSTORE PUSH1 0x20 ADD PUSH0 KECCAK256 PUSH1 0x40 MLOAD DUP1 PUSH1 0x40 ADD PUSH1 0x40 MSTORE DUP1 DUP5 DUP2 MSTORE PUSH1 0x20 ADD PUSH0 ISZERO ISZERO DUP2 MSTORE POP SWAP1 DUP1 PUSH1 0x1 DUP2 SLOAD ADD DUP1 DUP3 SSTORE DUP1 SWAP2 POP POP PUSH1 0x1 SWAP1 SUB SWAP1 PUSH0 MSTORE PUSH1 0x20 PUSH0 KECCAK256 SWAP1 PUSH1 0x2 MUL ADD PUSH0 SWAP1 SWAP2 SWAP1 SWAP2 SWAP1 SWAP2 POP PUSH0 DUP3 ADD MLOAD DUP2 PUSH0 ADD SWAP1 DUP2 PUSH2 0x4CB SWAP2 SWAP1 PUSH2 0x1255 JUMP JUMPDEST POP PUSH1 0x20 DUP3 ADD MLOAD DUP2 PUSH1 0x1 ADD PUSH0 PUSH2 0x100 EXP DUP2 SLOAD DUP2 PUSH1 0xFF MUL NOT AND SWAP1 DUP4 ISZERO ISZERO MUL OR SWAP1 SSTORE POP POP POP PUSH0 PUSH1 0x1 PUSH0 DUP1 CALLER PUSH20 0xFFFFFFFFFFFFFFFFFFFFFFFFFFFFFFFFFFFFFFFF AND PUSH20 0xFFFFFFFFFFFFFFFFFFFFFFFFFFFFFFFFFFFFFFFF AND DUP2 MSTORE PUSH1 0x20 ADD SWAP1 DUP2 MSTORE PUSH1 0x20 ADD PUSH0 KECCAK256 DUP1 SLOAD SWAP1 POP PUSH2 0x53A SWAP2 SWAP1 PUSH2 0x1351 JUMP JUMPDEST SWAP1 POP CALLER PUSH20 0xFFFFFFFFFFFFFFFFFFFFFFFFFFFFFFFFFFFFFFFF AND PUSH32 0x793F49AAB3B9E0D3125D745773B78AC45236F2BEEED7C6296E60911E17A0DE42 DUP3 DUP6 PUSH1 0x40 MLOAD PUSH2 0x584 SWAP3 SWAP2 SWAP1 PUSH2 0x1384 JUMP JUMPDEST PUSH1 0x40 MLOAD DUP1 SWAP2 SUB SWAP1 LOG2 DUP1 SWAP2 POP POP SWAP2 SWAP1 POP JUMP JUMPDEST PUSH0 PUSH1 0x20 MSTORE DUP2 PUSH0 MSTORE PUSH1 0x40 PUSH0 KECCAK256 DUP2 DUP2 SLOAD DUP2 LT PUSH2 0x5AD JUMPI PUSH0 DUP1 REVERT JUMPDEST SWAP1 PUSH0 MSTORE PUSH1 0x20 PUSH0 KECCAK256 SWAP1 PUSH1 0x2 MUL ADD PUSH0 SWAP2 POP SWAP2 POP POP DUP1 PUSH0 ADD DUP1 SLOAD PUSH2 0x5CD SWAP1 PUSH2 0x1088 JUMP JUMPDEST DUP1 PUSH1 0x1F ADD PUSH1 0x20 DUP1 SWAP2 DIV MUL PUSH1 0x20 ADD PUSH1 0x40 MLOAD SWAP1 DUP2 ADD PUSH1 0x40 MSTORE DUP1 SWAP3 SWAP2 SWAP1 DUP2 DUP2 MSTORE PUSH1 0x20 ADD DUP3 DUP1 SLOAD PUSH2 0x5F9 SWAP1 PUSH2 0x1088 JUMP JUMPDEST DUP1 ISZERO PUSH2 0x644 JUMPI DUP1 PUSH1 0x1F LT PUSH2 0x61B JUMPI PUSH2 0x100 DUP1 DUP4 SLOAD DIV MUL DUP4 MSTORE SWAP2 PUSH1 0x20 ADD SWAP2 PUSH2 0x644 JUMP JUMPDEST DUP3 ADD SWAP2 SWAP1 PUSH0 MSTORE PUSH1 0x20 PUSH0 KECCAK256 SWAP1 JUMPDEST DUP2 SLOAD DUP2 MSTORE SWAP1 PUSH1 0x1 ADD SWAP1 PUSH1 0x20 ADD DUP1 DUP4 GT PUSH2 0x627 JUMPI DUP3 SWAP1 SUB PUSH1 0x1F AND DUP3 ADD SWAP2 JUMPDEST POP POP POP POP POP SWAP1 DUP1 PUSH1 0x1 ADD PUSH0 SWAP1 SLOAD SWAP1 PUSH2 0x100 EXP SWAP1 DIV PUSH1 0xFF AND SWAP1 POP DUP3 JUMP JUMPDEST PUSH1 0x60 DUP1 PUSH1 0x60 PUSH0 DUP1 PUSH0 CALLER PUSH20 0xFFFFFFFFFFFFFFFFFFFFFFFFFFFFFFFFFFFFFFFF AND PUSH20 0xFFFFFFFFFFFFFFFFFFFFFFFFFFFFFFFFFFFFFFFF AND DUP2 MSTORE PUSH1 0x20 ADD SWAP1 DUP2 MSTORE PUSH1 0x20 ADD PUSH0 KECCAK256 DUP1 SLOAD SWAP1 POP SWAP1 POP PUSH0 DUP2 PUSH8 0xFFFFFFFFFFFFFFFF DUP2 GT ISZERO PUSH2 0x6C3 JUMPI PUSH2 0x6C2 PUSH2 0xAE0 JUMP JUMPDEST JUMPDEST PUSH1 0x40 MLOAD SWAP1 DUP1 DUP3 MSTORE DUP1 PUSH1 0x20 MUL PUSH1 0x20 ADD DUP3 ADD PUSH1 0x40 MSTORE DUP1 ISZERO PUSH2 0x6F1 JUMPI DUP2 PUSH1 0x20 ADD PUSH1 0x20 DUP3 MUL DUP1 CALLDATASIZE DUP4 CALLDATACOPY DUP1 DUP3 ADD SWAP2 POP POP SWAP1 POP JUMPDEST POP SWAP1 POP PUSH0 DUP3 PUSH8 0xFFFFFFFFFFFFFFFF DUP2 GT ISZERO PUSH2 0x70F JUMPI PUSH2 0x70E PUSH2 0xAE0 JUMP JUMPDEST JUMPDEST PUSH1 0x40 MLOAD SWAP1 DUP1 DUP3 MSTORE DUP1 PUSH1 0x20 MUL PUSH1 0x20 ADD DUP3 ADD PUSH1 0x40 MSTORE DUP1 ISZERO PUSH2 0x742 JUMPI DUP2 PUSH1 0x20 ADD JUMPDEST PUSH1 0x60 DUP2 MSTORE PUSH1 0x20 ADD SWAP1 PUSH1 0x1 SWAP1 SUB SWAP1 DUP2 PUSH2 0x72D JUMPI SWAP1 POP JUMPDEST POP SWAP1 POP PUSH0 DUP4 PUSH8 0xFFFFFFFFFFFFFFFF DUP2 GT ISZERO PUSH2 0x760 JUMPI PUSH2 0x75F PUSH2 0xAE0 JUMP JUMPDEST JUMPDEST PUSH1 0x40 MLOAD SWAP1 DUP1 DUP3 MSTORE DUP1 PUSH1 0x20 MUL PUSH1 0x20 ADD DUP3 ADD PUSH1 0x40 MSTORE DUP1 ISZERO PUSH2 0x78E JUMPI DUP2 PUSH1 0x20 ADD PUSH1 0x20 DUP3 MUL DUP1 CALLDATASIZE DUP4 CALLDATACOPY DUP1 DUP3 ADD SWAP2 POP POP SWAP1 POP JUMPDEST POP SWAP1 POP PUSH0 JUMPDEST DUP5 DUP2 LT ISZERO PUSH2 0x958 JUMPI DUP1 DUP5 DUP3 DUP2 MLOAD DUP2 LT PUSH2 0x7AF JUMPI PUSH2 0x7AE PUSH2 0x102E JUMP JUMPDEST JUMPDEST PUSH1 0x20 MUL PUSH1 0x20 ADD ADD DUP2 DUP2 MSTORE POP POP PUSH0 DUP1 CALLER PUSH20 0xFFFFFFFFFFFFFFFFFFFFFFFFFFFFFFFFFFFFFFFF AND PUSH20 0xFFFFFFFFFFFFFFFFFFFFFFFFFFFFFFFFFFFFFFFF AND DUP2 MSTORE PUSH1 0x20 ADD SWAP1 DUP2 MSTORE PUSH1 0x20 ADD PUSH0 KECCAK256 DUP2 DUP2 SLOAD DUP2 LT PUSH2 0x809 JUMPI PUSH2 0x808 PUSH2 0x102E JUMP JUMPDEST JUMPDEST SWAP1 PUSH0 MSTORE PUSH1 0x20 PUSH0 KECCAK256 SWAP1 PUSH1 0x2 MUL ADD PUSH0 ADD DUP1 SLOAD PUSH2 0x822 SWAP1 PUSH2 0x1088 JUMP JUMPDEST DUP1 PUSH1 0x1F ADD PUSH1 0x20 DUP1 SWAP2 DIV MUL PUSH1 0x20 ADD PUSH1 0x40 MLOAD SWAP1 DUP2 ADD PUSH1 0x40 MSTORE DUP1 SWAP3 SWAP2 SWAP1 DUP2 DUP2 MSTORE PUSH1 0x20 ADD DUP3 DUP1 SLOAD PUSH2 0x84E SWAP1 PUSH2 0x1088 JUMP JUMPDEST DUP1 ISZERO PUSH2 0x899 JUMPI DUP1 PUSH1 0x1F LT PUSH2 0x870 JUMPI PUSH2 0x100 DUP1 DUP4 SLOAD DIV MUL DUP4 MSTORE SWAP2 PUSH1 0x20 ADD SWAP2 PUSH2 0x899 JUMP JUMPDEST DUP3 ADD SWAP2 SWAP1 PUSH0 MSTORE PUSH1 0x20 PUSH0 KECCAK256 SWAP1 JUMPDEST DUP2 SLOAD DUP2 MSTORE SWAP1 PUSH1 0x1 ADD SWAP1 PUSH1 0x20 ADD DUP1 DUP4 GT PUSH2 0x87C JUMPI DUP3 SWAP1 SUB PUSH1 0x1F AND DUP3 ADD SWAP2 JUMPDEST POP POP POP POP POP DUP4 DUP3 DUP2 MLOAD DUP2 LT PUSH2 0x8B1 JUMPI PUSH2 0x8B0 PUSH2 0x102E JUMP JUMPDEST JUMPDEST PUSH1 0x20 MUL PUSH1 0x20 ADD ADD DUP2 SWAP1 MSTORE POP PUSH0 DUP1 CALLER PUSH20 0xFFFFFFFFFFFFFFFFFFFFFFFFFFFFFFFFFFFFFFFF AND PUSH20 0xFFFFFFFFFFFFFFFFFFFFFFFFFFFFFFFFFFFFFFFF AND DUP2 MSTORE PUSH1 0x20 ADD SWAP1 DUP2 MSTORE PUSH1 0x20 ADD PUSH0 KECCAK256 DUP2 DUP2 SLOAD DUP2 LT PUSH2 0x90A JUMPI PUSH2 0x909 PUSH2 0x102E JUMP JUMPDEST JUMPDEST SWAP1 PUSH0 MSTORE PUSH1 0x20 PUSH0 KECCAK256 SWAP1 PUSH1 0x2 MUL ADD PUSH1 0x1 ADD PUSH0 SWAP1 SLOAD SWAP1 PUSH2 0x100 EXP SWAP1 DIV PUSH1 0xFF AND DUP3 DUP3 DUP2 MLOAD DUP2 LT PUSH2 0x939 JUMPI PUSH2 0x938 PUSH2 0x102E JUMP JUMPDEST JUMPDEST PUSH1 0x20 MUL PUSH1 0x20 ADD ADD SWAP1 ISZERO ISZERO SWAP1 DUP2 ISZERO ISZERO DUP2 MSTORE POP POP DUP1 DUP1 PUSH1 0x1 ADD SWAP2 POP POP PUSH2 0x793 JUMP JUMPDEST POP DUP3 DUP3 DUP3 SWAP7 POP SWAP7 POP SWAP7 POP POP POP POP POP SWAP1 SWAP2 SWAP3 JUMP JUMPDEST PUSH0 DUP1 PUSH0 CALLER PUSH20 0xFFFFFFFFFFFFFFFFFFFFFFFFFFFFFFFFFFFFFFFF AND PUSH20 0xFFFFFFFFFFFFFFFFFFFFFFFFFFFFFFFFFFFFFFFF AND DUP2 MSTORE PUSH1 0x20 ADD SWAP1 DUP2 MSTORE PUSH1 0x20 ADD PUSH0 KECCAK256 DUP1 SLOAD SWAP1 POP SWAP1 POP SWAP1 JUMP JUMPDEST PUSH0 PUSH1 0x40 MLOAD SWAP1 POP SWAP1 JUMP JUMPDEST PUSH0 DUP1 REVERT JUMPDEST PUSH0 DUP1 REVERT JUMPDEST PUSH0 DUP2 SWAP1 POP SWAP2 SWAP1 POP JUMP JUMPDEST PUSH2 0x9D4 DUP2 PUSH2 0x9C2 JUMP JUMPDEST DUP2 EQ PUSH2 0x9DE JUMPI PUSH0 DUP1 REVERT JUMPDEST POP JUMP JUMPDEST PUSH0 DUP2 CALLDATALOAD SWAP1 POP PUSH2 0x9EF DUP2 PUSH2 0x9CB JUMP JUMPDEST SWAP3 SWAP2 POP POP JUMP JUMPDEST PUSH0 PUSH1 0x20 DUP3 DUP5 SUB SLT ISZERO PUSH2 0xA0A JUMPI PUSH2 0xA09 PUSH2 0x9BA JUMP JUMPDEST JUMPDEST PUSH0 PUSH2 0xA17 DUP5 DUP3 DUP6 ADD PUSH2 0x9E1 JUMP JUMPDEST SWAP2 POP POP SWAP3 SWAP2 POP POP JUMP JUMPDEST PUSH0 DUP2 MLOAD SWAP1 POP SWAP2 SWAP1 POP JUMP JUMPDEST PUSH0 DUP3 DUP3 MSTORE PUSH1 0x20 DUP3 ADD SWAP1 POP SWAP3 SWAP2 POP POP JUMP JUMPDEST DUP3 DUP2 DUP4 MCOPY PUSH0 DUP4 DUP4 ADD MSTORE POP POP POP JUMP JUMPDEST PUSH0 PUSH1 0x1F NOT PUSH1 0x1F DUP4 ADD AND SWAP1 POP SWAP2 SWAP1 POP JUMP JUMPDEST PUSH0 PUSH2 0xA62 DUP3 PUSH2 0xA20 JUMP JUMPDEST PUSH2 0xA6C DUP2 DUP6 PUSH2 0xA2A JUMP JUMPDEST SWAP4 POP PUSH2 0xA7C DUP2 DUP6 PUSH1 0x20 DUP7 ADD PUSH2 0xA3A JUMP JUMPDEST PUSH2 0xA85 DUP2 PUSH2 0xA48 JUMP JUMPDEST DUP5 ADD SWAP2 POP POP SWAP3 SWAP2 POP POP JUMP JUMPDEST PUSH0 DUP2 ISZERO ISZERO SWAP1 POP SWAP2 SWAP1 POP JUMP JUMPDEST PUSH2 0xAA4 DUP2 PUSH2 0xA90 JUMP JUMPDEST DUP3 MSTORE POP POP JUMP JUMPDEST PUSH0 PUSH1 0x40 DUP3 ADD SWAP1 POP DUP2 DUP2 SUB PUSH0 DUP4 ADD MSTORE PUSH2 0xAC2 DUP2 DUP6 PUSH2 0xA58 JUMP JUMPDEST SWAP1 POP PUSH2 0xAD1 PUSH1 0x20 DUP4 ADD DUP5 PUSH2 0xA9B JUMP JUMPDEST SWAP4 SWAP3 POP POP POP JUMP JUMPDEST PUSH0 DUP1 REVERT JUMPDEST PUSH0 DUP1 REVERT JUMPDEST PUSH32 0x4E487B7100000000000000000000000000000000000000000000000000000000 PUSH0 MSTORE PUSH1 0x41 PUSH1 0x4 MSTORE PUSH1 0x24 PUSH0 REVERT JUMPDEST PUSH2 0xB16 DUP3 PUSH2 0xA48 JUMP JUMPDEST DUP2 ADD DUP2 DUP2 LT PUSH8 0xFFFFFFFFFFFFFFFF DUP3 GT OR ISZERO PUSH2 0xB35 JUMPI PUSH2 0xB34 PUSH2 0xAE0 JUMP JUMPDEST JUMPDEST DUP1 PUSH1 0x40 MSTORE POP POP POP JUMP JUMPDEST PUSH0 PUSH2 0xB47 PUSH2 0x9B1 JUMP JUMPDEST SWAP1 POP PUSH2 0xB53 DUP3 DUP3 PUSH2 0xB0D JUMP JUMPDEST SWAP2 SWAP1 POP JUMP JUMPDEST PUSH0 PUSH8 0xFFFFFFFFFFFFFFFF DUP3 GT ISZERO PUSH2 0xB72 JUMPI PUSH2 0xB71 PUSH2 0xAE0 JUMP JUMPDEST JUMPDEST PUSH2 0xB7B DUP3 PUSH2 0xA48 JUMP JUMPDEST SWAP1 POP PUSH1 0x20 DUP2 ADD SWAP1 POP SWAP2 SWAP1 POP JUMP JUMPDEST DUP3 DUP2 DUP4 CALLDATACOPY PUSH0 DUP4 DUP4 ADD MSTORE POP POP POP JUMP JUMPDEST PUSH0 PUSH2 0xBA8 PUSH2 0xBA3 DUP5 PUSH2 0xB58 JUMP JUMPDEST PUSH2 0xB3E JUMP JUMPDEST SWAP1 POP DUP3 DUP2 MSTORE PUSH1 0x20 DUP2 ADD DUP5 DUP5 DUP5 ADD GT ISZERO PUSH2 0xBC4 JUMPI PUSH2 0xBC3 PUSH2 0xADC JUMP JUMPDEST JUMPDEST PUSH2 0xBCF DUP5 DUP3 DUP6 PUSH2 0xB88 JUMP JUMPDEST POP SWAP4 SWAP3 POP POP POP JUMP JUMPDEST PUSH0 DUP3 PUSH1 0x1F DUP4 ADD SLT PUSH2 0xBEB JUMPI PUSH2 0xBEA PUSH2 0xAD8 JUMP JUMPDEST JUMPDEST DUP2 CALLDATALOAD PUSH2 0xBFB DUP5 DUP3 PUSH1 0x20 DUP7 ADD PUSH2 0xB96 JUMP JUMPDEST SWAP2 POP POP SWAP3 SWAP2 POP POP JUMP JUMPDEST PUSH0 PUSH1 0x20 DUP3 DUP5 SUB SLT ISZERO PUSH2 0xC19 JUMPI PUSH2 0xC18 PUSH2 0x9BA JUMP JUMPDEST JUMPDEST PUSH0 DUP3 ADD CALLDATALOAD PUSH8 0xFFFFFFFFFFFFFFFF DUP2 GT ISZERO PUSH2 0xC36 JUMPI PUSH2 0xC35 PUSH2 0x9BE JUMP JUMPDEST JUMPDEST PUSH2 0xC42 DUP5 DUP3 DUP6 ADD PUSH2 0xBD7 JUMP JUMPDEST SWAP2 POP POP SWAP3 SWAP2 POP POP JUMP JUMPDEST PUSH2 0xC54 DUP2 PUSH2 0x9C2 JUMP JUMPDEST DUP3 MSTORE POP POP JUMP JUMPDEST PUSH0 PUSH1 0x20 DUP3 ADD SWAP1 POP PUSH2 0xC6D PUSH0 DUP4 ADD DUP5 PUSH2 0xC4B JUMP JUMPDEST SWAP3 SWAP2 POP POP JUMP JUMPDEST PUSH0 PUSH20 0xFFFFFFFFFFFFFFFFFFFFFFFFFFFFFFFFFFFFFFFF DUP3 AND SWAP1 POP SWAP2 SWAP1 POP JUMP JUMPDEST PUSH0 PUSH2 0xC9C DUP3 PUSH2 0xC73 JUMP JUMPDEST SWAP1 POP SWAP2 SWAP1 POP JUMP JUMPDEST PUSH2 0xCAC DUP2 PUSH2 0xC92 JUMP JUMPDEST DUP2 EQ PUSH2 0xCB6 JUMPI PUSH0 DUP1 REVERT JUMPDEST POP JUMP JUMPDEST PUSH0 DUP2 CALLDATALOAD SWAP1 POP PUSH2 0xCC7 DUP2 PUSH2 0xCA3 JUMP JUMPDEST SWAP3 SWAP2 POP POP JUMP JUMPDEST PUSH0 DUP1 PUSH1 0x40 DUP4 DUP6 SUB SLT ISZERO PUSH2 0xCE3 JUMPI PUSH2 0xCE2 PUSH2 0x9BA JUMP JUMPDEST JUMPDEST PUSH0 PUSH2 0xCF0 DUP6 DUP3 DUP7 ADD PUSH2 0xCB9 JUMP JUMPDEST SWAP3 POP POP PUSH1 0x20 PUSH2 0xD01 DUP6 DUP3 DUP7 ADD PUSH2 0x9E1 JUMP JUMPDEST SWAP2 POP POP SWAP3 POP SWAP3 SWAP1 POP JUMP JUMPDEST PUSH0 DUP2 MLOAD SWAP1 POP SWAP2 SWAP1 POP JUMP JUMPDEST PUSH0 DUP3 DUP3 MSTORE PUSH1 0x20 DUP3 ADD SWAP1 POP SWAP3 SWAP2 POP POP JUMP JUMPDEST PUSH0 DUP2 SWAP1 POP PUSH1 0x20 DUP3 ADD SWAP1 POP SWAP2 SWAP1 POP JUMP JUMPDEST PUSH2 0xD3D DUP2 PUSH2 0x9C2 JUMP JUMPDEST DUP3 MSTORE POP POP JUMP JUMPDEST PUSH0 PUSH2 0xD4E DUP4 DUP4 PUSH2 0xD34 JUMP JUMPDEST PUSH1 0x20 DUP4 ADD SWAP1 POP SWAP3 SWAP2 POP POP JUMP JUMPDEST PUSH0 PUSH1 0x20 DUP3 ADD SWAP1 POP SWAP2 SWAP1 POP JUMP JUMPDEST PUSH0 PUSH2 0xD70 DUP3 PUSH2 0xD0B JUMP JUMPDEST PUSH2 0xD7A DUP2 DUP6 PUSH2 0xD15 JUMP JUMPDEST SWAP4 POP PUSH2 0xD85 DUP4 PUSH2 0xD25 JUMP JUMPDEST DUP1 PUSH0 JUMPDEST DUP4 DUP2 LT ISZERO PUSH2 0xDB5 JUMPI DUP2 MLOAD PUSH2 0xD9C DUP9 DUP3 PUSH2 0xD43 JUMP JUMPDEST SWAP8 POP PUSH2 0xDA7 DUP4 PUSH2 0xD5A JUMP JUMPDEST SWAP3 POP POP PUSH1 0x1 DUP2 ADD SWAP1 POP PUSH2 0xD88 JUMP JUMPDEST POP DUP6 SWAP4 POP POP POP POP SWAP3 SWAP2 POP POP JUMP JUMPDEST PUSH0 DUP2 MLOAD SWAP1 POP SWAP2 SWAP1 POP JUMP JUMPDEST PUSH0 DUP3 DUP3 MSTORE PUSH1 0x20 DUP3 ADD SWAP1 POP SWAP3 SWAP2 POP POP JUMP JUMPDEST PUSH0 DUP2 SWAP1 POP PUSH1 0x20 DUP3 ADD SWAP1 POP SWAP2 SWAP1 POP JUMP JUMPDEST PUSH0 DUP3 DUP3 MSTORE PUSH1 0x20 DUP3 ADD SWAP1 POP SWAP3 SWAP2 POP POP JUMP JUMPDEST PUSH0 PUSH2 0xE05 DUP3 PUSH2 0xA20 JUMP JUMPDEST PUSH2 0xE0F DUP2 DUP6 PUSH2 0xDEB JUMP JUMPDEST SWAP4 POP PUSH2 0xE1F DUP2 DUP6 PUSH1 0x20 DUP7 ADD PUSH2 0xA3A JUMP JUMPDEST PUSH2 0xE28 DUP2 PUSH2 0xA48 JUMP JUMPDEST DUP5 ADD SWAP2 POP POP SWAP3 SWAP2 POP POP JUMP JUMPDEST PUSH0 PUSH2 0xE3E DUP4 DUP4 PUSH2 0xDFB JUMP JUMPDEST SWAP1 POP SWAP3 SWAP2 POP POP JUMP JUMPDEST PUSH0 PUSH1 0x20 DUP3 ADD SWAP1 POP SWAP2 SWAP1 POP JUMP JUMPDEST PUSH0 PUSH2 0xE5C DUP3 PUSH2 0xDC2 JUMP JUMPDEST PUSH2 0xE66 DUP2 DUP6 PUSH2 0xDCC JUMP JUMPDEST SWAP4 POP DUP4 PUSH1 0x20 DUP3 MUL DUP6 ADD PUSH2 0xE78 DUP6 PUSH2 0xDDC JUMP JUMPDEST DUP1 PUSH0 JUMPDEST DUP6 DUP2 LT ISZERO PUSH2 0xEB3 JUMPI DUP5 DUP5 SUB DUP10 MSTORE DUP2 MLOAD PUSH2 0xE94 DUP6 DUP3 PUSH2 0xE33 JUMP JUMPDEST SWAP5 POP PUSH2 0xE9F DUP4 PUSH2 0xE46 JUMP JUMPDEST SWAP3 POP PUSH1 0x20 DUP11 ADD SWAP10 POP POP PUSH1 0x1 DUP2 ADD SWAP1 POP PUSH2 0xE7B JUMP JUMPDEST POP DUP3 SWAP8 POP DUP8 SWAP6 POP POP POP POP POP POP SWAP3 SWAP2 POP POP JUMP JUMPDEST PUSH0 DUP2 MLOAD SWAP1 POP SWAP2 SWAP1 POP JUMP JUMPDEST PUSH0 DUP3 DUP3 MSTORE PUSH1 0x20 DUP3 ADD SWAP1 POP SWAP3 SWAP2 POP POP JUMP JUMPDEST PUSH0 DUP2 SWAP1 POP PUSH1 0x20 DUP3 ADD SWAP1 POP SWAP2 SWAP1 POP JUMP JUMPDEST PUSH2 0xEF7 DUP2 PUSH2 0xA90 JUMP JUMPDEST DUP3 MSTORE POP POP JUMP JUMPDEST PUSH0 PUSH2 0xF08 DUP4 DUP4 PUSH2 0xEEE JUMP JUMPDEST PUSH1 0x20 DUP4 ADD SWAP1 POP SWAP3 SWAP2 POP POP JUMP JUMPDEST PUSH0 PUSH1 0x20 DUP3 ADD SWAP1 POP SWAP2 SWAP1 POP JUMP JUMPDEST PUSH0 PUSH2 0xF2A DUP3 PUSH2 0xEC5 JUMP JUMPDEST PUSH2 0xF34 DUP2 DUP6 PUSH2 0xECF JUMP JUMPDEST SWAP4 POP PUSH2 0xF3F DUP4 PUSH2 0xEDF JUMP JUMPDEST DUP1 PUSH0 JUMPDEST DUP4 DUP2 LT ISZERO PUSH2 0xF6F JUMPI DUP2 MLOAD PUSH2 0xF56 DUP9 DUP3 PUSH2 0xEFD JUMP JUMPDEST SWAP8 POP PUSH2 0xF61 DUP4 PUSH2 0xF14 JUMP JUMPDEST SWAP3 POP POP PUSH1 0x1 DUP2 ADD SWAP1 POP PUSH2 0xF42 JUMP JUMPDEST POP DUP6 SWAP4 POP POP POP POP SWAP3 SWAP2 POP POP JUMP JUMPDEST PUSH0 PUSH1 0x60 DUP3 ADD SWAP1 POP DUP2 DUP2 SUB PUSH0 DUP4 ADD MSTORE PUSH2 0xF94 DUP2 DUP7 PUSH2 0xD66 JUMP JUMPDEST SWAP1 POP DUP2 DUP2 SUB PUSH1 0x20 DUP4 ADD MSTORE PUSH2 0xFA8 DUP2 DUP6 PUSH2 0xE52 JUMP JUMPDEST SWAP1 POP DUP2 DUP2 SUB PUSH1 0x40 DUP4 ADD MSTORE PUSH2 0xFBC DUP2 DUP5 PUSH2 0xF20 JUMP JUMPDEST SWAP1 POP SWAP5 SWAP4 POP POP POP POP JUMP JUMPDEST PUSH32 0x5461736B20646F6573206E6F7420657869737400000000000000000000000000 PUSH0 DUP3 ADD MSTORE POP JUMP JUMPDEST PUSH0 PUSH2 0xFFA PUSH1 0x13 DUP4 PUSH2 0xA2A JUMP JUMPDEST SWAP2 POP PUSH2 0x1005 DUP3 PUSH2 0xFC6 JUMP JUMPDEST PUSH1 0x20 DUP3 ADD SWAP1 POP SWAP2 SWAP1 POP JUMP JUMPDEST PUSH0 PUSH1 0x20 DUP3 ADD SWAP1 POP DUP2 DUP2 SUB PUSH0 DUP4 ADD MSTORE PUSH2 0x1027 DUP2 PUSH2 0xFEE JUMP JUMPDEST SWAP1 POP SWAP2 SWAP1 POP JUMP JUMPDEST PUSH32 0x4E487B7100000000000000000000000000000000000000000000000000000000 PUSH0 MSTORE PUSH1 0x32 PUSH1 0x4 MSTORE PUSH1 0x24 PUSH0 REVERT JUMPDEST PUSH32 0x4E487B7100000000000000000000000000000000000000000000000000000000 PUSH0 MSTORE PUSH1 0x22 PUSH1 0x4 MSTORE PUSH1 0x24 PUSH0 REVERT JUMPDEST PUSH0 PUSH1 0x2 DUP3 DIV SWAP1 POP PUSH1 0x1 DUP3 AND DUP1 PUSH2 0x109F JUMPI PUSH1 0x7F DUP3 AND SWAP2 POP JUMPDEST PUSH1 0x20 DUP3 LT DUP2 SUB PUSH2 0x10B2 JUMPI PUSH2 0x10B1 PUSH2 0x105B JUMP JUMPDEST JUMPDEST POP SWAP2 SWAP1 POP JUMP JUMPDEST PUSH0 DUP2 SWAP1 POP DUP2 PUSH0 MSTORE PUSH1 0x20 PUSH0 KECCAK256 SWAP1 POP SWAP2 SWAP1 POP JUMP JUMPDEST PUSH0 PUSH1 0x20 PUSH1 0x1F DUP4 ADD DIV SWAP1 POP SWAP2 SWAP1 POP JUMP JUMPDEST PUSH0 DUP3 DUP3 SHL SWAP1 POP SWAP3 SWAP2 POP POP JUMP JUMPDEST PUSH0 PUSH1 0x8 DUP4 MUL PUSH2 0x1114 PUSH32 0xFFFFFFFFFFFFFFFFFFFFFFFFFFFFFFFFFFFFFFFFFFFFFFFFFFFFFFFFFFFFFFFF DUP3 PUSH2 0x10D9 JUMP JUMPDEST PUSH2 0x111E DUP7 DUP4 PUSH2 0x10D9 JUMP JUMPDEST SWAP6 POP DUP1 NOT DUP5 AND SWAP4 POP DUP1 DUP7 AND DUP5 OR SWAP3 POP POP POP SWAP4 SWAP3 POP POP POP JUMP JUMPDEST PUSH0 DUP2 SWAP1 POP SWAP2 SWAP1 POP JUMP JUMPDEST PUSH0 PUSH2 0x1159 PUSH2 0x1154 PUSH2 0x114F DUP5 PUSH2 0x9C2 JUMP JUMPDEST PUSH2 0x1136 JUMP JUMPDEST PUSH2 0x9C2 JUMP JUMPDEST SWAP1 POP SWAP2 SWAP1 POP JUMP JUMPDEST PUSH0 DUP2 SWAP1 POP SWAP2 SWAP1 POP JUMP JUMPDEST PUSH2 0x1172 DUP4 PUSH2 0x113F JUMP JUMPDEST PUSH2 0x1186 PUSH2 0x117E DUP3 PUSH2 0x1160 JUMP JUMPDEST DUP5 DUP5 SLOAD PUSH2 0x10E5 JUMP JUMPDEST DUP3 SSTORE POP POP POP POP JUMP JUMPDEST PUSH0 SWAP1 JUMP JUMPDEST PUSH2 0x119A PUSH2 0x118E JUMP JUMPDEST PUSH2 0x11A5 DUP2 DUP5 DUP5 PUSH2 0x1169 JUMP JUMPDEST POP POP POP JUMP JUMPDEST JUMPDEST DUP2 DUP2 LT ISZERO PUSH2 0x11C8 JUMPI PUSH2 0x11BD PUSH0 DUP3 PUSH2 0x1192 JUMP JUMPDEST PUSH1 0x1 DUP2 ADD SWAP1 POP PUSH2 0x11AB JUMP JUMPDEST POP POP JUMP JUMPDEST PUSH1 0x1F DUP3 GT ISZERO PUSH2 0x120D JUMPI PUSH2 0x11DE DUP2 PUSH2 0x10B8 JUMP JUMPDEST PUSH2 0x11E7 DUP5 PUSH2 0x10CA JUMP JUMPDEST DUP2 ADD PUSH1 0x20 DUP6 LT ISZERO PUSH2 0x11F6 JUMPI DUP2 SWAP1 POP JUMPDEST PUSH2 0x120A PUSH2 0x1202 DUP6 PUSH2 0x10CA JUMP JUMPDEST DUP4 ADD DUP3 PUSH2 0x11AA JUMP JUMPDEST POP POP JUMPDEST POP POP POP JUMP JUMPDEST PUSH0 DUP3 DUP3 SHR SWAP1 POP SWAP3 SWAP2 POP POP JUMP JUMPDEST PUSH0 PUSH2 0x122D PUSH0 NOT DUP5 PUSH1 0x8 MUL PUSH2 0x1212 JUMP JUMPDEST NOT DUP1 DUP4 AND SWAP2 POP POP SWAP3 SWAP2 POP POP JUMP JUMPDEST PUSH0 PUSH2 0x1245 DUP4 DUP4 PUSH2 0x121E JUMP JUMPDEST SWAP2 POP DUP3 PUSH1 0x2 MUL DUP3 OR SWAP1 POP SWAP3 SWAP2 POP POP JUMP JUMPDEST PUSH2 0x125E DUP3 PUSH2 0xA20 JUMP JUMPDEST PUSH8 0xFFFFFFFFFFFFFFFF DUP2 GT ISZERO PUSH2 0x1277 JUMPI PUSH2 0x1276 PUSH2 0xAE0 JUMP JUMPDEST JUMPDEST PUSH2 0x1281 DUP3 SLOAD PUSH2 0x1088 JUMP JUMPDEST PUSH2 0x128C DUP3 DUP3 DUP6 PUSH2 0x11CC JUMP JUMPDEST PUSH0 PUSH1 0x20 SWAP1 POP PUSH1 0x1F DUP4 GT PUSH1 0x1 DUP2 EQ PUSH2 0x12BD JUMPI PUSH0 DUP5 ISZERO PUSH2 0x12AB JUMPI DUP3 DUP8 ADD MLOAD SWAP1 POP JUMPDEST PUSH2 0x12B5 DUP6 DUP3 PUSH2 0x123A JUMP JUMPDEST DUP7 SSTORE POP PUSH2 0x131C JUMP JUMPDEST PUSH1 0x1F NOT DUP5 AND PUSH2 0x12CB DUP7 PUSH2 0x10B8 JUMP JUMPDEST PUSH0 JUMPDEST DUP3 DUP2 LT ISZERO PUSH2 0x12F2 JUMPI DUP5 DUP10 ADD MLOAD DUP3 SSTORE PUSH1 0x1 DUP3 ADD SWAP2 POP PUSH1 0x20 DUP6 ADD SWAP5 POP PUSH1 0x20 DUP2 ADD SWAP1 POP PUSH2 0x12CD JUMP JUMPDEST DUP7 DUP4 LT ISZERO PUSH2 0x130F JUMPI DUP5 DUP10 ADD MLOAD PUSH2 0x130B PUSH1 0x1F DUP10 AND DUP3 PUSH2 0x121E JUMP JUMPDEST DUP4 SSTORE POP JUMPDEST PUSH1 0x1 PUSH1 0x2 DUP9 MUL ADD DUP9 SSTORE POP POP POP JUMPDEST POP POP POP POP POP POP JUMP JUMPDEST PUSH32 0x4E487B7100000000000000000000000000000000000000000000000000000000 PUSH0 MSTORE PUSH1 0x11 PUSH1 0x4 MSTORE PUSH1 0x24 PUSH0 REVERT JUMPDEST PUSH0 PUSH2 0x135B DUP3 PUSH2 0x9C2 JUMP JUMPDEST SWAP2 POP PUSH2 0x1366 DUP4 PUSH2 0x9C2 JUMP JUMPDEST SWAP3 POP DUP3 DUP3 SUB SWAP1 POP DUP2 DUP2 GT ISZERO PUSH2 0x137E JUMPI PUSH2 0x137D PUSH2 0x1324 JUMP JUMPDEST JUMPDEST SWAP3 SWAP2 POP POP JUMP JUMPDEST PUSH0 PUSH1 0x40 DUP3 ADD SWAP1 POP PUSH2 0x1397 PUSH0 DUP4 ADD DUP6 PUSH2 0xC4B JUMP JUMPDEST DUP2 DUP2 SUB PUSH1 0x20 DUP4 ADD MSTORE PUSH2 0x13A9 DUP2 DUP5 PUSH2 0xA58 JUMP JUMPDEST SWAP1 POP SWAP4 SWAP3 POP POP POP JUMP INVALID LOG2 PUSH5 0x6970667358 0x22 SLT KECCAK256 CODECOPY SHR 0xDC 0xB7 0xA7 EXTCODESIZE 0xCB 0xC9 PUSH26 0xEA8BF778B7D7254870D16CA2559050A6B8C9CE45C5176864736F PUSH13 0x634300081A0033000000000000 "
				},
				"gasEstimates": {
					"creation": {
						"codeDepositCost": "1019200",
						"executionCost": "1059",
						"totalCost": "1020259"
					},
					"external": {
						"addTask(string)": "infinite",
						"getAllTasks()": "infinite",
						"getTask(uint256)": "infinite",
						"getTaskCount()": "2615",
						"markTaskCompleted(uint256)": "infinite",
						"tasks(address,uint256)": "infinite"
					}
				},
				"methodIdentifiers": {
					"addTask(string)": "67238562",
					"getAllTasks()": "779900b4",
					"getTask(uint256)": "1d65e77e",
					"getTaskCount()": "c17a340e",
					"markTaskCompleted(uint256)": "000b2bda",
					"tasks(address,uint256)": "7149d2e4"
				}
			},
			"storageLayout": {
				"storage": [
					{
						"astId": 12,
						"contract": "contracts/4_ToDoList.sol:ToDoList",
						"label": "tasks",
						"offset": 0,
						"slot": "0",
						"type": "t_mapping(t_address,t_array(t_struct(Task)6_storage)dyn_storage)"
					}
				],
				"types": {
					"t_address": {
						"encoding": "inplace",
						"label": "address",
						"numberOfBytes": "20"
					},
					"t_array(t_struct(Task)6_storage)dyn_storage": {
						"base": "t_struct(Task)6_storage",
						"encoding": "dynamic_array",
						"label": "struct ToDoList.Task[]",
						"numberOfBytes": "32"
					},
					"t_bool": {
						"encoding": "inplace",
						"label": "bool",
						"numberOfBytes": "1"
					},
					"t_mapping(t_address,t_array(t_struct(Task)6_storage)dyn_storage)": {
						"encoding": "mapping",
						"key": "t_address",
						"label": "mapping(address => struct ToDoList.Task[])",
						"numberOfBytes": "32",
						"value": "t_array(t_struct(Task)6_storage)dyn_storage"
					},
					"t_string_storage": {
						"encoding": "bytes",
						"label": "string",
						"numberOfBytes": "32"
					},
					"t_struct(Task)6_storage": {
						"encoding": "inplace",
						"label": "struct ToDoList.Task",
						"members": [
							{
								"astId": 3,
								"contract": "contracts/4_ToDoList.sol:ToDoList",
								"label": "content",
								"offset": 0,
								"slot": "0",
								"type": "t_string_storage"
							},
							{
								"astId": 5,
								"contract": "contracts/4_ToDoList.sol:ToDoList",
								"label": "completed",
								"offset": 0,
								"slot": "1",
								"type": "t_bool"
							}
						],
						"numberOfBytes": "64"
					}
				}
			},
			"userdoc": {
				"kind": "user",
				"methods": {},
				"version": 1
			}
		}
	}
}